:020000040800F2
:100000007004002049010008510100085301000854
:1000100055010008570100085901000800000000C0
:100020000000000000000000000000005B0100086C
:100030005D010008000000005F01000821070008C2
:100040006301000863010008630100086301000800
:1000500063010008630100086301000863010008F0
:1000600063010008630100086301000863010008E0
:100070006301000863010008E101000809020008AB
:1000800063010008630100086301000863010008C0
:1000900063010008630100086301000863010008B0
:1000A00063010008B5070008630100086301000848
:1000B0006301000863010008630100086301000890
:1000C0006301000863010008630100086301000880
:1000D00063010008150800086301000863010008B7
:1000E0003905000863010008630100086301000886
:1000F0006301000863010008630100086301000850
:10010000630100086301000863010008630100083F
:100110006301000863010008F1070008630100089B
:10012000630100086301000863010008630100081F
:10013000DFF810D000F042F8004800476D0A0008D0
:10014000AFF300807004002006488047064800474F
:10015000FEE7FEE7FEE7FEE7FEE7FEE7FEE7FEE777
:10016000FEE7FEE75507000831010008D2B201E0C2
:1001700000F8012B491EFBD270470022F6E710B5AC
:1001800013460A4604461946FFF7F0FF204610BD05
:1001900030B50B46014600202022012409E021FA57
:1001A00002F59D4205D303FA02F5491B04FA02F554
:1001B0002844151EA2F10102F1DC30BD064C074DAA
:1001C00006E0E06840F0010394E807009847103427
:1001D000AC42F6D3FFF7B0FFCC0A0008EC0A0008E7
:1001E0000848006800F4005050B10648406840F4E8
:1001F0008050044948600846406C20F00100486483
:1002000070470000000002400748006800F400301A
:1002100040B10548406840F400300349486001207F
:1002200002490870704700000000024004000020EE
:1002300000B5034603E04FF47A7000F006F8181E8C
:10024000A3F101018BB2F6D100BD00EBC001C900E2
:100250004FF0E0225161002191611146096941F09E
:10026000040111611146096921F002011161114671
:10027000096941F00101116100BF4FF0E0210969F6
:1002800001F480310029F8D04FF0E021096921F014
:1002900001014FF0E0221161704700000249096836
:1002A0000143014A116070470C0801400249096886
:1002B0008143014A116070470C08014000B50346B4
:1002C00005480068184018B11846FFF7EFFF02E034
:1002D0001846FFF7E3FF00BD080801402248806987
:1002E00040F00400204988610846806940F0100011
:1002F00088611E48006820F440001C4908600846D8
:10030000006840F4401008600846006820F0404053
:1003100008600846006840F0405008601448406893
:1003200020F44000124948600846406840F44010FC
:1003300048600E48006820F030600C4908600846AC
:10034000006840F0806008600948C06840F40050D0
:100350000749C86005480C30006820F020000349B8
:100360000C31086070470000001002400008014096
:10037000001001400348C06820F400500149C860E3
:1003800070470000001001400348C06840F400506E
:100390000149C860704700000010014010B50146D7
:1003A0000020002228E001F0800333B1144B1B68C9
:1003B00043F08003124C236005E0114B1B6823F0CF
:1003C00080030F4C23604B06190E0D4B1B6843F046
:1003D00020030B4C23604306180E231F1B6803F0F9
:1003E00040030BB140F00100054B1B6823F02003D4
:1003F000034C2360531CDAB2082AD4DB10BD000082
:100400000C08014010B53F48806940F004003D49A8
:1004100088610846806940F4804088613A480068F5
:1004200040F0B000384908600846006820F04000FD
:1004300008600846006840F480600860084600686C
:1004400020F43060086040F2712030490880081DB7
:10045000008820F48050091D08800846008820F498
:1004600080600880081D008820F44050091D088025
:10047000081F008840F00800091F0880084600880F
:1004800040F0040008800846008840F02000088002
:100490000846008840F010000880032002461C4BEC
:1004A00019684FF6FF0319401A4B0B4343EA022128
:1004B000174B196000BF25200321002808DA0A071E
:1004C000140E134A0C3200F00F031B1FD45403E028
:1004D0000A07130E104A135400BF252000F01F0214
:1004E000012191404209920002F1E022C2F800117C
:1004F00000BF0648001D008840F400500349091D54
:10050000088010BD00100240040801400838014076
:100510000CED00E00000FA0500E400E000BF054932
:10052000098801F080010029F9D00249091D0880DD
:10053000704700000038014010B50948006840F4D9
:100540008060074908600A20FFF772FE05480068CE
:1005500000F4806010B10120FFF7B0FE10BD000074
:1005600014040140081C014010B5FFF7B7FE10BD90
:100570002DE9F04780460C4615469946DDF820A047
:1005800000F043F8FFF7F6FE0320FFF707FF4FEAFE
:10059000084000EB043000EB0526C6F30740FFF7E8
:1005A000FDFEC6F30720FFF7F9FEF0B2FFF7F6FEF7
:1005B000002706E0FF20FFF7F1FE09F80700781C8E
:1005C00087B25745F6DBFFF7DFFEBDE8F08770B571
:1005D00005460C46FFF7CEFE9F20FFF7DFFEFF200B
:1005E000FFF7DCFE287000202080FF20FFF7D6FEFA
:1005F000218841EA00202080FF20FFF7CFFE2188DC
:1006000008432080FFF7C0FE70BD10B50024FFF73F
:10061000B1FE0520FFF7C2FEFF20FFF7BFFE044634
:1006200003E0FF20FFF7BAFE044604F001000028B3
:10063000F7D1FFF7A9FE10BD10B500F001F810BD0D
:100640000CB50020019000903348006840F48030E1
:100650003149086000BF3048006800F40030009065
:100660000198401C0190009818B90198B0F5A06F4E
:10067000F1D12948006800F4003010B10120009049
:1006800001E0002000900098012843D12348006831
:1006900040F01000214908600846006820F007007B
:1006A00008600846006840F0020008601A48406888
:1006B000194948600846406848600846406840F468
:1006C000806048600846406820F47C104860084616
:1006D000406840F4E81048600846006840F08070C8
:1006E000086000BF0C48006800F000700028F9D0D6
:1006F0000948406820F00300074948600846406800
:1007000040F00200486000BF0348406800F00C0061
:100710000828F9D10CBD0000001002400020024062
:1007200010B50A480088401C08490880084600881F
:10073000B0F57A7F08DB0120FFF7C0FD00200349F8
:10074000088003A000F08EF810BD00000200002019
:10075000310A000010B51348006840F0010011494B
:10076000086008464068104908400E49486008463D
:1007700000680E4908400B4908600846006820F4EC
:10078000802008600846406820F4FE0048604FF46E
:100790001F008860FFF750FF4FF0006004490860B9
:1007A00010BD0000001002400000FFF8FFFFF6FE41
:1007B00008ED00E010B509A000F054F80B480088DF
:1007C00020F001000949088008481038008820F00E
:1007D000010006491039088010BD0000BDF8C8EBC3
:1007E000B8FCD0C2D6D0B6CF0A000000102C014011
:1007F00010B50648008A20F0010004490882022052
:10080000FFF75CFD02A000F02DF810BD00100040C5
:10081000310A00000F48008800F0200060B10D4848
:10082000001D00880C490D4A127888540B48007846
:10083000401C0A4908700CE00648008800F01000CF
:1008400038B1044800880348001D0088012004498D
:1008500008707047003801400C00002000000020A4
:10086000010000200FB4054B10B503A9044A0298FB
:1008700000F018F810BC5DF814FB00005D0A0008D9
:100880000800002002E008C8121F08C1002AFAD19F
:1008900070477047002001E001C1121F002AFBD100
:1008A000704700002DE9FF4F8BB09A460F46054672
:1008B000002606E025280BD052460D9990476D1C66
:1008C000761C28780028F5D10FB03046BDE8F08FAF
:1008D0000024A0460122604900E0044315F8013FCE
:1008E000203B02FA03F00842F7D128782E2817D1CE
:1008F00015F8010F44F004042A280ED06FF02F02DF
:100900002878A0F1300109290AD808EB880102EB08
:10091000410100EB01086D1CF2E757F8048B6D1CD8
:10092000287869283ED006DC0028CDD063280BD07B
:10093000642804D136E0732810D075284BD0524675
:100940000D999047761C85E017F8040B8DF8000090
:1009500000208DF80100E946012003E057F8049BD0
:100960004FF0FF3061074FF0000401D40AE0641C2F
:1009700044450DDA8442FADB19F804100029F6D157
:1009800006E0641C8442FCDB19F804100029F8D14D
:10099000264404E019F8010B52460D999047641E55
:1009A000F8D257E001CF4FF00A0B002802DA40429C
:1009B0002D2102E0210504D52B218DF824100121E1
:1009C00003E0E10705D02021F7E70DF120090891A8
:1009D0000CE00021F9E701CF4FF00A0BF9E7594687
:1009E000FFF7D6FB01F1300209F8012D0028F6D1FE
:1009F000ADEB090000F1200B600701D44FF00108B6
:100A0000D84502DDA8EB0B0000E000208046002462
:100A100006E009A85246005D0D999047641C761CBB
:100A200008988442F5DB04E0302052460D99904747
:100A3000761CB8F10001A8F10108F5DC05E019F811
:100A4000010B52460D999047761CBBF10001ABF1AA
:100A5000010BF4DC6D1C34E70928010000B50246E7
:100A60000B46D0B2FFF75AFD104600BD88B0FFF725
:100A7000C9FCFFF779FD00200790069006A907A89A
:100A8000FFF7A5FDBDF818209DF81C100AA0FFF780
:100A9000E9FE142101A8FFF770FB0C2001AB012235
:100AA000114600900020FFF763FD01A906A0FFF7A3
:100AB000D9FE00BFFEE700006469643A25642C6D2E
:100AC00069643A25640A000025730A00EC0A0008EC
:100AD000000000200C00000084080008F80A00084C
:100AE0000C000020640400009408000800000000CE
:080AF0000000000000000000FE
:0400000508000131BD
:00000001FF
