:020000040800F2
:100000007004002049010008510100085301000854
:1000100055010008570100085901000800000000C0
:100020000000000000000000000000005B0100086C
:100030005D010008000000005F01000835050008B0
:100040006301000863010008630100086301000800
:1000500063010008630100086301000863010008F0
:1000600063010008630100086301000863010008E0
:1000700063010008630100086301000863010008D0
:1000800063010008630100086301000863010008C0
:1000900063010008630100086301000863010008B0
:1000A00063010008630100086301000863010008A0
:1000B0006301000863010008630100086301000890
:1000C0006301000863010008630100086301000880
:1000D00063010008C9050008630100086301000806
:1000E0001D040008630100086301000863010008A3
:1000F0006301000863010008630100086301000850
:10010000630100086301000863010008630100083F
:10011000630100086301000863010008630100082F
:10012000630100086301000863010008630100081F
:10013000DFF810D000F01AF80048004779060008F0
:10014000AFF300807004002006488047064800474F
:10015000FEE7FEE7FEE7FEE7FEE7FEE7FEE7FEE777
:10016000FEE7FEE76905000831010008064C074D6F
:1001700006E0E06840F0010394E807009847103477
:10018000AC42F6D3FFF7D8FFB8060008D80600083F
:1001900000B5034603E04FF47A7000F013F8181E20
:1001A000A3F101018BB2F6D100BD10B5044603E006
:1001B0004FF47A70FFF7ECFF201EA4F101018CB21E
:1001C000F6D110BD00EBC001C9004FF0E022516133
:1001D000002191611146096941F004011161114644
:1001E000096921F0020111611146096941F001011B
:1001F000116100BF4FF0E021096901F4803100294D
:10020000F8D04FF0E021096921F001014FF0E02220
:10021000116170471748806940F0040015498861F2
:100220001548006840F0330013490860084600682C
:1002300020F0CC000860081D006840F00300091D94
:1002400008600846006820F00C0008600A480C307E
:10025000006840F0010008490C3108600846006859
:1002600040F0020008600846006840F480700860B2
:100270007047000000100240000801400249096870
:100280000143014A116070470C08014002490968A6
:100290008143014A116070470C08014000B50346D4
:1002A00005480068184018B11846FFF7EFFF02E054
:1002B0001846FFF7E3FF00BD0808014010B53F48AE
:1002C000806940F004003D4988610846806940F437
:1002D000804088613A48006840F0B00038490860C2
:1002E0000846006820F0400008600846006840F4B6
:1002F000806008600846006820F43060086040F2C2
:10030000712030490880081D008820F48050091DA4
:1003100008800846008820F480600880081D008856
:1003200020F44050091D0880081F008840F0080094
:10033000091F08800846008840F00400088008462D
:10034000008840F0200008800846008840F0100037
:100350000880032002461C4B19684FF6FF03194022
:100360001A4B0B4343EA0221174B196000BF2520AB
:100370000321002808DA0A07140E134A0C3200F091
:100380000F031B1FD45403E00A07130E104A135423
:1003900000BF252000F01F02012191404209920078
:1003A00002F1E022C2F8001100BF0648001D0088DB
:1003B00040F400500349091D088010BD00100240A0
:1003C00004080140083801400CED00E00000FA0587
:1003D00000E400E000BF0549098801F08001002920
:1003E000F9D00249091D088070470000003801401B
:1003F00009484FF0E02148610846006940F00400D8
:1004000008610846006940F002000861084600697A
:1004100040F00100086170473F19010010B509481C
:10042000006840F48060074908600A20FFF7B0FECA
:100430000548006800F4806010B10120FFF72EFF2E
:1004400010BD000014040140081C014010B500F06C
:1004500001F810BD0CB500200190009033480068F1
:1004600040F480303149086000BF3048006800F433
:10047000003000900198401C0190009818B9019834
:10048000B0F5A06FF1D12948006800F4003010B138
:100490000120009001E0002000900098012843D145
:1004A0002348006840F010002149086008460068B1
:1004B00020F0070008600846006840F0020008606D
:1004C0001A4840681949486008464068486008462C
:1004D000406840F4806048600846406820F47C1022
:1004E00048600846406840F4E810486008460068E4
:1004F00040F08070086000BF0C48006800F0007099
:100500000028F9D00948406820F0030007494860F6
:100510000846406840F00200486000BF0348406859
:1005200000F00C000828F9D10CBD000000100240BA
:100530000020024010B50A480088401C0849088085
:1005400008460088B0F57A7F08DB0120FFF7A6FE99
:1005500000200349088003A000F05EF810BD0000F1
:1005600002000020310A000010B51348006840F076
:1005700001001149086008464068104908400E49CA
:100580004860084600680E4908400B490860084664
:10059000006820F4802008600846406820F4FE00CF
:1005A00048604FF41F008860FFF750FF4FF0006075
:1005B0000449086010BD0000001002400000FFF870
:1005C000FFFFF6FE08ED00E00F48008800F0200075
:1005D00060B10D48001D00880C490D4A12788854FE
:1005E0000B480078401C0A4908700CE00648008857
:1005F00000F0100038B1044800880348001D00884E
:1006000001200449087070470038014008000020AC
:100610000000002001000020014A024900F013B848
:10062000690600080400002002E008C8121F08C183
:10063000002AFAD170477047002001E001C1121F63
:10064000002AFBD170472DE9F04116460F460446BB
:10065000002503E03946B047641C6D1C2078002853
:10066000F8D12846BDE8F08100B502460B46D0B26D
:10067000FFF7B0FE104600BDFFF7BAFEFFF7CAFD58
:10068000FFF71CFE0120FFF7F9FD0220FFF7F6FD42
:100690004FF48070FFF7F2FD05A0FFF7BDFF0520C6
:1006A000FFF783FD03A0FFF7B7FF00BFFEE70000E1
:1006B000320D0A00330D0A00D806000800000020A1
:1006C0000800000028060008E006000808000020D6
:1006D0006804000038060008000000000000000068
:0400000508000131BD
:00000001FF
