:020000040800F2
:10000000780400204901000851010008530100084C
:1000100055010008570100085901000800000000C0
:100020000000000000000000000000005B0100086C
:100030005D010008000000005F010008E9050008FC
:100040006301000863010008630100086301000800
:1000500063010008630100086301000863010008F0
:1000600063010008630100086301000863010008E0
:10007000630100086301000891010008B90100084C
:1000800063010008630100086301000863010008C0
:1000900063010008630100086301000863010008B0
:1000A000630100087D060008630100086301000881
:1000B0006301000863010008630100086301000890
:1000C0006301000863010008630100086301000880
:1000D00063010008DD0600086301000863010008F1
:1000E000D1040008630100086301000863010008EF
:1000F0006301000863010008630100086301000850
:10010000630100086301000863010008630100083F
:100110006301000863010008B906000863010008D4
:10012000630100086301000863010008630100081F
:10013000DFF810D000F01AF8004800475108000816
:10014000AFF3008078040020064880470648004747
:10015000FEE7FEE7FEE7FEE7FEE7FEE7FEE7FEE777
:10016000FEE7FEE71D06000831010008064C074DBA
:1001700006E0E06840F0010394E807009847103477
:10018000AC42F6D3FFF7D8FFA8080008C80800085B
:100190000848006800F4005050B10648406840F438
:1001A0008050044948600846406C20F001004864D3
:1001B00070470000000002400748006800F400306B
:1001C00040B10548406840F40030034948600120D0
:1001D0000249087070470000000002400C00002037
:1001E00000B5034603E04FF47A7000F013F8181ED0
:1001F000A3F101018BB2F6D100BD10B5044603E0B6
:100200004FF47A70FFF7ECFF201EA4F101018CB2CD
:10021000F6D110BD00EBC001C9004FF0E0225161E2
:10022000002191611146096941F0040111611146F3
:10023000096921F0020111611146096941F00101CA
:10024000116100BF4FF0E021096901F480310029FC
:10025000F8D04FF0E021096921F001014FF0E022D0
:100260001161704710B53048406940F001002E49D7
:1002700048612E48806D20F480402C4988650846EE
:10028000806D20F4406088650846806D20F44070E1
:1002900088650846806D40F0800088650846806D5E
:1002A00020F0400088650846806D40F02000886599
:1002B0000846806D20F0100088651D48008840F0D9
:1002C00040001B4908801948806D40F00200174922
:1002D000886503200246174B19684FF6FF03194043
:1002E000154B0B4343EA0221124B196000BF0F204C
:1002F0000221002808DA0A07140E0E4A0C3200F018
:100300000F031B1FD45403E00A07130E0B4A1354A8
:1003100000BF0F20012181404209920002F1E0223A
:10032000C2F8001100BF10BD0010024000000240E2
:10033000143801400CED00E00000FA0500E400E094
:1003400010B5054B18665966DA659B6D43F00103DD
:10035000014CA36510BD000000000240024909687D
:100360000143014A116070470C08014002490968C5
:100370008143014A116070470C08014000B50346F3
:1003800005480068184018B11846FFF7EFFF02E073
:100390001846FFF7E3FF00BD0808014010B53F48CD
:1003A000806940F004003D4988610846806940F456
:1003B000804088613A48006840F0B00038490860E1
:1003C0000846006820F0400008600846006840F4D5
:1003D000806008600846006820F43060086040F2E1
:1003E000712030490880081D008820F48050091DC4
:1003F00008800846008820F480600880081D008876
:1004000020F44050091D0880081F008840F00800B3
:10041000091F08800846008840F00400088008464C
:10042000008840F0200008800846008840F0100056
:100430000880032002461C4B19684FF6FF03194041
:100440001A4B0B4343EA0221174B196000BF2520CA
:100450000321002808DA0A07140E134A0C3200F0B0
:100460000F031B1FD45403E00A07130E104A135442
:1004700000BF252000F01F02012191404209920097
:1004800002F1E022C2F8001100BF0648001D0088FA
:1004900040F400500349091D088010BD00100240BF
:1004A00004080140083801400CED00E00000FA05A6
:1004B00000E400E000BF0549098801F0800100293F
:1004C000F9D00249091D088070470000003801403A
:1004D00010B50948006840F48060074908600A20A8
:1004E000FFF77EFE0548006800F4806010B101202F
:1004F000FFF744FF10BD000014040140081C014038
:1005000010B500F001F810BD0CB50020019000906E
:100510003348006840F480303149086000BF3048FB
:10052000006800F4003000900198401C0190009891
:1005300018B90198B0F5A06FF1D12948006800F40E
:10054000003010B10120009001E0002000900098E0
:10055000012843D12348006840F010002149086079
:100560000846006820F0070008600846006840F070
:10057000020008601A484068194948600846406807
:1005800048600846406840F480604860084640681B
:1005900020F47C1048600846406840F4E810486049
:1005A0000846006840F08070086000BF0C48006892
:1005B00000F000700028F9D00948406820F00300DE
:1005C000074948600846406840F00200486000BFA4
:1005D0000348406800F00C000828F9D10CBD000069
:1005E000001002400020024010B50A480088401C5C
:1005F0000849088008460088B0F57A7F08DB0120AA
:10060000FFF7BCFE00200349088003A000F08EF82D
:1006100010BD00000A000020310A000010B5134888
:10062000006840F001001149086008464068104920
:1006300008400E494860084600680E4908400B49CA
:1006400008600846006820F480200860084640687A
:1006500020F4FE0048604FF41F008860FFF750FF51
:100660004FF000600449086010BD00000010024017
:100670000000FFF8FFFFF6FE08ED00E010B509A04E
:1006800000F054F80B48008820F001000949088068
:1006900008481038008820F0010006491039088009
:1006A00010BD0000BDF8C8EBB8FCD0C2D6D0B6CFA4
:1006B0000A000000102C014010B50648008A20F006
:1006C0000100044908820220FFF758FE02A000F052
:1006D0002DF810BD00100040310A00000F480088BE
:1006E00000F0200060B10D48001D00880C490D4A43
:1006F000127888540B480078401C0A4908700CE0B6
:100700000648008800F0100038B10448008803480B
:10071000001D00880120044908707047003801401E
:100720001400002008000020090000200FB4054B31
:1007300010B503A9044A029800F017F810BC5DF840
:1007400014FB0000410800081000002002E008C867
:10075000121F08C1002AFAD170477047002001E03B
:1007600001C1121F002AFBD170472DE9F84F9946AD
:10077000924688460546002706E025280AD05146BD
:100780004A4690476D1C7F1C28780028F5D13846D2
:10079000BDE8F88F002315F8011F18462E2915D142
:1007A00015F8011F04232A290DD06FF02F02297894
:1007B000A1F13004092C09D800EB800002EB4000C5
:1007C00008446D1CF3E758F8040B6D1C2A78002AC6
:1007D000DDD0632A07D0732A0FD0104651464A460F
:1007E00090477F1C2AE018F8042B8DF80020002188
:1007F0008DF801106E46012103E058F8046B4FF0AC
:10080000FF315A074FF0000401D409E0641C844210
:100810000BDA8C42FADB325D002AF7D105E0641C6A
:100820008C42FCDB305D0028F9D1274404E016F847
:10083000010B51464A469047641EF8D26D1CA3E74F
:1008400000B502460B46D0B2FFF734FE104600BD9D
:10085000FFF7A4FD0CA0FFF769FFFFF703FD0322DC
:100860000D490E48FFF76CFD0DE00D48007801289A
:1008700006D100200A49087007490AA0FFF756FF71
:100880000220FFF7BAFCF0E7BFAACABCB2E2CAD4A2
:10089000444D410A000000000000002004380140DF
:1008A0000C00002025730A00C80800080000002082
:1008B000140000004C070008DC08000814000020A9
:1008C000640400005C070008000000000000000055
:0C08D0000000000000000000000000001C
:0400000508000131BD
:00000001FF
