:020000040800F2
:100000007004002049010008510100085301000854
:1000100055010008570100085901000800000000C0
:100020000000000000000000000000005B0100086C
:100030005D010008000000005F010008D105000814
:100040006301000863010008630100086301000800
:1000500063010008630100086301000863010008F0
:1000600063010008630100086301000863010008E0
:100070006301000863010008A10100086301000892
:1000800063010008630100086301000863010008C0
:1000900063010008630100086301000863010008B0
:1000A0006301000865060008630100086301000899
:1000B0006301000863010008630100086301000890
:1000C0006301000863010008630100086301000880
:1000D00063010008C5060008630100086301000809
:1000E000B904000863010008630100086301000807
:1000F0006301000863010008630100086301000850
:10010000630100086301000863010008630100083F
:100110006301000863010008A106000863010008EC
:10012000630100086301000863010008630100081F
:10013000DFF810D000F022F80048004775070008EB
:10014000AFF300807004002006488047064800474F
:10015000FEE7FEE7FEE7FEE7FEE7FEE7FEE7FEE777
:10016000FEE7FEE70506000831010008421C10F812
:10017000011B0029FBD1801A70470000064C074D77
:1001800006E0E06840F0010394E807009847103467
:10019000AC42F6D3FFF7D0FFB8070008D807000835
:1001A0000848006800F4005050B10648406840F428
:1001B0008050044948600846406C20F001004864C3
:1001C000704700000000024000B5034603E04FF412
:1001D0007A7000F013F8181EA3F101018BB2F6D16A
:1001E00000BD10B5044603E04FF47A70FFF7ECFF52
:1001F000201EA4F101018CB2F6D110BD00EBC001AC
:10020000C9004FF0E0225161002191611146096956
:1002100041F0040111611146096921F002011161E7
:100220001146096941F00101116100BF4FF0E02161
:10023000096901F480310029F8D04FF0E021096903
:1002400021F001014FF0E0221161704710B53048F4
:10025000406940F001002E4948612E48406C20F46E
:1002600080402C4948640846406C20F44060486453
:100270000846406C20F4407048640846406C40F0EA
:10028000800048640846406C20F0400048640846FE
:10029000406C20F0200048640846406C40F010009C
:1002A00048641D48008840F080001B4908801948B8
:1002B000406C40F002001749486403200246174B87
:1002C00019684FF6FF031940154B0B4343EA02210F
:1002D000124B196000BF0E200221002808DA0A071D
:1002E000140E0E4A0C3200F00F031B1FD45403E00F
:1002F0000A07130E0B4A135400BF0E200121814040
:100300004209920002F1E022C2F8001100BF10BDC4
:100310000010024000000240143801400CED00E0E3
:100320000000FA0500E400E010B5054B1865D9643B
:100330009A645B6C43F00103014C636410BD0000E0
:1003400000000240024909680143014A11607047F8
:100350000C080140024909688143014A1160704755
:100360000C08014000B5034605480068184018B164
:100370001846FFF7EFFF02E01846FFF7E3FF00BD66
:100380000808014010B53F48806940F004003D492D
:1003900088610846806940F4804088613A48006876
:1003A00040F0B000384908600846006820F040007E
:1003B00008600846006840F48060086008460068ED
:1003C00020F43060086040F2712030490880081D38
:1003D000008820F48050091D08800846008820F419
:1003E00080600880081D008820F44050091D0880A6
:1003F000081F008840F00800091F08800846008890
:1004000040F0040008800846008840F02000088082
:100410000846008840F010000880032002461C4B6C
:1004200019684FF6FF0319401A4B0B4343EA0221A8
:10043000174B196000BF25200321002808DA0A079E
:10044000140E134A0C3200F00F031B1FD45403E0A8
:100450000A07130E104A135400BF252000F01F0294
:10046000012191404209920002F1E022C2F80011FC
:1004700000BF0648001D008840F400500349091DD4
:10048000088010BD001002400408014008380140F7
:100490000CED00E00000FA0500E400E000BF0549B3
:1004A000098801F080010029F9D00249091D08805E
:1004B000704700000038014010B50948006840F45A
:1004C0008060074908600A20FFF77EFE0548006843
:1004D00000F4806010B10120FFF744FF10BD000060
:1004E00014040140081C014010B500F001F810BDD3
:1004F0000CB50020019000903348006840F4803033
:100500003149086000BF3048006800F400300090B6
:100510000198401C0190009818B90198B0F5A06F9F
:10052000F1D12948006800F4003010B1012000909A
:1005300001E0002000900098012843D12348006882
:1005400040F01000214908600846006820F00700CC
:1005500008600846006840F0020008601A484068D9
:10056000194948600846406848600846406840F4B9
:10057000806048600846406820F47C104860084667
:10058000406840F4E81048600846006840F0807019
:10059000086000BF0C48006800F000700028F9D027
:1005A0000948406820F00300074948600846406851
:1005B00040F00200486000BF0348406800F00C00B3
:1005C0000828F9D10CBD00000010024000200240B4
:1005D00010B50A480088401C084908800846008871
:1005E000B0F57A7F08DB0120FFF7BCFE002003494D
:1005F000088003A000F08EF810BD00000600002067
:10060000310A000010B51348006840F0010011499C
:10061000086008464068104908400E49486008468E
:1006200000680E4908400B4908600846006820F43D
:10063000802008600846406820F4FE0048604FF4BF
:100640001F008860FFF750FF4FF00060044908600A
:1006500010BD0000001002400000FFF8FFFFF6FE92
:1006600008ED00E010B509A000F054F80B48008830
:1006700020F001000949088008481038008820F05F
:10068000010006491039088010BD0000BDF8C8EB14
:10069000B8FCD0C2D6D0B6CF0A000000102C014062
:1006A00010B50648008A20F00100044908820220A3
:1006B000FFF758FE02A000F02DF810BD001000401A
:1006C000310A00000F48008800F0200060B10D489A
:1006D000001D00880C490D4A127888540B48007898
:1006E000401C0A4908700CE00648008800F0100021
:1006F00038B1044800880348001D008801200449DF
:1007000008707047003801400C00002004000020F1
:1007100005000020014A024900F013B865070008EF
:100720000800002002E008C8121F08C1002AFAD100
:1007300070477047002001E001C1121F002AFBD161
:1007400070472DE9F04116460F460446002503E0A8
:100750003946B047641C6D1C20780028F8D1284623
:10076000BDE8F08100B502460B46D0B2FFF796FE19
:10077000104600BDFFF706FE09A0FFF7CBFFFFF70D
:1007800065FD0BE00A48FFF7F1FC84B222460949F7
:100790000748FFF7C9FD0120FFF723FDF2E700003E
:1007A000BFAACABCB2E2CAD4444D410A000000004C
:1007B0000000002004380140D80700080000002095
:1007C0000C00000024070008E40700080C000020CB
:1007D00064040000340700086162636400000000E4
:0407E0000000000015
:0400000508000131BD
:00000001FF
