:020000040800F2
:100000007808002049010008510100085301000848
:1000100055010008570100085901000800000000C0
:100020000000000000000000000000005B0100086C
:100030005D010008000000005F010008D107000812
:100040006301000863010008630100086301000800
:1000500063010008630100086301000863010008F0
:1000600063010008630100086301000863010008E0
:1000700063010008630100085902000881020008BA
:1000800063010008630100086301000863010008C0
:1000900063010008630100086301000863010008B0
:1000A0006301000865080008630100086301000897
:1000B0006301000863010008630100086301000890
:1000C0006301000863010008630100086301000880
:1000D00063010008C5080008630100086301000807
:1000E000B906000863010008630100086301000805
:1000F0006301000863010008630100086301000850
:10010000630100086301000863010008630100083F
:100110006301000863010008A108000863010008EA
:10012000630100086301000863010008630100081F
:10013000DFF810D000F05EF800480047250C0008FA
:10014000AFF3008078080020064880470648004743
:10015000FEE7FEE7FEE7FEE7FEE7FEE7FEE7FEE777
:10016000FEE7FEE70508000831010008D2B201E011
:1001700000F8012B491EFBD270470022F6E710B5AC
:1001800013460A4604461946FFF7F0FF204610BD05
:100190002DE9F05F0546002092469B4688460646BC
:1001A000814640241BE0284641464746224600F04F
:1001B00042F853465A46C01A914110D31146184688
:1001C000224600F029F82D1A67EB01084F46224617
:1001D0000120002100F020F817EB00094E41201EFD
:1001E000A4F10104DFDC484631462A464346BDE817
:1001F000F09F0000064C074D06E0E06840F0010368
:1002000094E8070098471034AC42F6D3FFF794FF08
:100210006811000888110008202A04DB203A00FA3F
:1002200002F1002070479140C2F1200320FA03F34D
:10023000194390407047202A04DB203A21FA02F04B
:100240000021704721FA02F3D040C2F12002914010
:1002500008431946704700000848006800F4005041
:1002600050B10648406840F4805004494860084650
:10027000406C20F00100486470470000000002401C
:100280000748006800F4003040B10548406840F479
:10029000003003494860012002490870704700009F
:1002A000000002400800002000B5034603E04FF4C0
:1002B0007A7000F006F8181EA3F101018BB2F6D196
:1002C00000BD00EBC001C9004FF0E02251610021E8
:1002D00091611146096941F00401116111460969F2
:1002E00021F0020111611146096941F0010111611A
:1002F00000BF4FF0E021096901F480310029F8D0F6
:100300004FF0E021096921F001014FF0E022116175
:100310007047000056480068564908435449086031
:10032000084600685449084051490860534800682D
:10033000534908435149086008460068514908403C
:100340004E49086050480068504908434E490860CB
:10035000084600684E4908404B490860081F00687D
:10036000474908434849091F08600846006845494D
:1003700008404549091F08603D48001F006840F0DB
:1003800033003B49091F0860081D006841490843C4
:10039000374908604048006840F040503E490860D6
:1003A000081D006840F03330091D08603048001F08
:1003B000006840F088002E49091F08600846006860
:1003C00020F044000860081D0068344908432849AB
:1003D00008600846006832490840254908602E48F0
:1003E000006840F000402C4908600846006820F092
:1003F00080400860081D006840F08830091D0860D2
:100400000846006800F0BB3008601948001F00680B
:1004100040F44C101649091F08600846006840F473
:10042000080008600846006820F4880008601A4840
:10043000006840F03300184908600846006840F042
:10044000880008600846006820F0440008600B48F7
:10045000406840F44070094948600846406840F4EC
:10046000006048600846406820F48060486070473B
:100470000414014000B0BB00FFBFBBFF00200140DF
:10048000BBBBBB00BBBBBBFF041C01400000BBBB34
:10049000FFFFBBBB3303003300180140880800880E
:1004A000BBFBFFBB00B52648406940F4807024497F
:1004B00048610846806940F02000886108468069EC
:1004C00040F0400088610846806940F08000886103
:1004D0000846806940F480708861FFF71BFF4FF089
:1004E0002040006940F001004FF0204108610846BB
:1004F000006920F0020008610846006920F00C0045
:1005000008610846006920F030000861084600696B
:1005100040F4805008610846406920F00F004861AF
:100520000846406920F0F00048610846406920F420
:100530007F4048610846406940F48E40486100BDF4
:1005400000100240024909680143014A11607047E6
:100550000C080140024909688143014A1160704753
:100560000C08014000B5034605480068184018B162
:100570001846FFF7EFFF02E01846FFF7E3FF00BD64
:100580000808014010B53F48806940F004003D492B
:1005900088610846806940F4804088613A48006874
:1005A00040F0B000384908600846006820F040007C
:1005B00008600846006840F48060086008460068EB
:1005C00020F43060086040F2712030490880081D36
:1005D000008820F48050091D08800846008820F417
:1005E00080600880081D008820F44050091D0880A4
:1005F000081F008840F00800091F0880084600888E
:1006000040F0040008800846008840F02000088080
:100610000846008840F010000880032002461C4B6A
:1006200019684FF6FF0319401A4B0B4343EA0221A6
:10063000174B196000BF25200321002808DA0A079C
:10064000140E134A0C3200F00F031B1FD45403E0A6
:100650000A07130E104A135400BF252000F01F0292
:10066000012191404209920002F1E022C2F80011FA
:1006700000BF0648001D008840F400500349091DD2
:10068000088010BD001002400408014008380140F5
:100690000CED00E00000FA0500E400E000BF0549B1
:1006A000098801F080010029F9D00249091D08805C
:1006B000704700000038014010B50948006840F458
:1006C0008060074908600A20FFF7EEFD05480068D2
:1006D00000F4806010B10120FFF744FF10BD00005E
:1006E00014040140081C014010B500F001F810BDD1
:1006F0000CB50020019000903348006840F4803031
:100700003149086000BF3048006800F400300090B4
:100710000198401C0190009818B90198B0F5A06F9D
:10072000F1D12948006800F4003010B10120009098
:1007300001E0002000900098012843D12348006880
:1007400040F01000214908600846006820F00700CA
:1007500008600846006840F0020008601A484068D7
:10076000194948600846406848600846406840F4B7
:10077000806048600846406820F47C104860084665
:10078000406840F4E81048600846006840F0807017
:10079000086000BF0C48006800F000700028F9D025
:1007A0000948406820F0030007494860084640684F
:1007B00040F00200486000BF0348406800F00C00B1
:1007C0000828F9D10CBD00000010024000200240B2
:1007D00010B50A480088401C08490880084600886F
:1007E000B0F57A7F08DB0120FFF7BCFE002003494B
:1007F000088003A000F08EF810BD00000600002065
:10080000310A000010B51348006840F0010011499A
:10081000086008464068104908400E49486008468C
:1008200000680E4908400B4908600846006820F43B
:10083000802008600846406820F4FE0048604FF4BD
:100840001F008860FFF750FF4FF000600449086008
:1008500010BD0000001002400000FFF8FFFFF6FE90
:1008600008ED00E010B509A000F054F80B4800882E
:1008700020F001000949088008481038008820F05D
:10088000010006491039088010BD0000BDF8C8EB12
:10089000B8FCD0C2D6D0B6CF0A000000102C014060
:1008A00010B50648008A20F00100044908820220A1
:1008B000FFF758FE02A000F02DF810BD0010004018
:1008C000310A00000F48008800F0200060B10D4898
:1008D000001D00880C490D4A127888540B48007896
:1008E000401C0A4908700CE00648008800F010001F
:1008F00038B1044800880348001D008801200449DD
:1009000008707047003801401000002004000020EB
:10091000050000200FB4054B10B503A9044A029846
:1009200000F018F810BC5DF814FB0000150C00086E
:100930000C00002002E008C8121F08C1002AFAD1EA
:1009400070477047002001E001C1121F002AFBD14F
:10095000704700002DE9FF4F8DB09B460F460446BF
:10096000002606E025280BD05A460F999047641CB4
:10097000761C20780028F5D111B03046BDE8F08F04
:100980000025A8460122984900E0054314F8013FDC
:10099000203B02FA03F00842F7D120782E2817D125
:1009A00014F8010F45F004052A280ED06FF02F022D
:1009B0002078A0F1300109290AD808EB880102EB60
:1009C000410100EB0108641CF2E757F8048B641C3A
:1009D00020786C280DD004DC4C2812D06A2811D164
:1009E00004E074280DD07A280CD10AE045F40015F3
:1009F00007E0617845F48015814202D1641C05F559
:100A00008015641C2078692844D008DC0028B3D005
:100A1000582867D063280FD0642808D13AE070289E
:100A200065D0732812D075285AD078285AD05A46E3
:100A30000F999047761CD5E017F8040B8DF800004D
:100A400000208DF80100E946012003E057F8049BDF
:100A50004FF0FF3069074FF0000501D40AE06D1C2C
:100A600045450DDA8542FADB19F805100029F6D163
:100A700006E06D1C8542FCDB19F805100029F8D151
:100A80002E4404E019F8010B5A460F9990476D1E49
:100A9000F8D2A7E00A200021CDE90801C5F30250F1
:100AA00002280CD001CFC117021E71F100020CDA2E
:100AB0000023D0EB030063EB01012D2208E0FF1DB2
:100AC00027F00707F7E80201EEE72A0504D52B22F5
:100AD0008DF8282001223CE0EA073AD02022F7E7EF
:100AE0000A2000E010200021CDE9080107E01020D5
:100AF000002145F00405CDE908014FF00808C5F3D1
:100B00000250022810D001CF00214FF0000A2A071E
:100B100020D52278702A0DD0DDE908C38CF0100CA6
:100B20005CEA030C0CD015E0FF1D27F00707F7E87F
:100B30000201EAE740228DF828204FF0010A0CE07C
:100B400050EA010306D030238DF828308DF8292093
:100B5000022292462278582A04D024A20DF12009BC
:100B60000B9209E026A2F9E7DDE90823FFF710FB65
:100B70000B9B9B5C09F8013D50EA0102F4D1ADEBFF
:100B8000090020300890680701D44FF00108089947
:100B9000884503DD0898A8EB000000E000208046AF
:100BA000002506E00AA85A46405D0F9990476D1C43
:100BB000761C5545F6DB04E030205A460F999047E5
:100BC000761CB8F10001A8F10108F5DC05E019F880
:100BD000010B5A460F999047761C0899481E0890B9
:100BE0000029F4DC641CC4E60928010030313233EA
:100BF0003435363738396162636465660000000059
:100C00003031323334353637383941424344454642
:100C10000000000000B502460B46D0B2FFF73EFDD3
:100C2000104600BDADF5816DFFF7ACFCFFF73AFC57
:100C30000A20CDF804049DF804240DF2044123A0F9
:100C4000FFF768FE0B20244908700846027823A0AD
:100C5000FFF760FE0C20254908700846027824A0A2
:100C6000FFF758FE0D20CDF800049DF800240DF587
:100C7000806123A0FFF74EFE254C0E2020700F2030
:100C8000611E48700846417822A0FFF743FE1820F5
:100C9000611E887008468278811C22A0FFF73AFE08
:100CA000A1026846FFF769FA6A46694620A0FFF785
:100CB00031FE224A114622A0FFF72CFE244802688A
:100CC000016824A0FFF726FE00BFFEE7763D202541
:100CD00070202C2025640A000000006876313D2039
:100CE0002570202C2025640A000000000400006804
:100CF00076323D202570202C2025640A000000005B
:100D000076333D202570202C2025640A0000000049
:100D100001000068307836383030303030313A25D4
:100D2000640A000076343A25702C25640A0000001D
:100D3000627566663A25702025730A00600D00080A
:100D400062756666313A25702025730A000000003E
:100D5000000000206E616D653A25702025730A0041
:100D60000000000000000000000000000000000083
:100D70000000000000000000000000000000000073
:100D80000000000000000000000000000000000063
:100D90000000000000000000000000000000000053
:1011600068656C6C6F0000008811000800000020AA
:101170001000000034090008981100081000002039
:101180006808000044090008601100080000000021
:08119000000000000000000057
:0400000508000131BD
:00000001FF
