:020000040800F2
:100000007004002049010008510100085301000854
:1000100055010008570100085901000800000000C0
:100020000000000000000000000000005B0100086C
:100030005D010008000000005F01000839040008AD
:100040006301000863010008630100086301000800
:1000500063010008630100086301000863010008F0
:1000600063010008630100086301000863010008E0
:1000700063010008630100086301000863010008D0
:1000800063010008630100086301000863010008C0
:1000900063010008630100086301000863010008B0
:1000A00063010008630100086301000863010008A0
:1000B0006301000863010008630100086301000890
:1000C0006301000863010008630100086301000880
:1000D00063010008F10400086301000863010008DF
:1000E00021030008630100086301000863010008A0
:1000F0006301000863010008630100086301000850
:10010000630100086301000863010008630100083F
:100110006301000863010008CD04000863010008C2
:10012000630100086301000863010008630100081F
:10013000DFF810D000F01AF800480047A1050008C9
:10014000AFF300807004002006488047064800474F
:10015000FEE7FEE7FEE7FEE7FEE7FEE7FEE7FEE777
:10016000FEE7FEE76D04000831010008064C074D6C
:1001700006E0E06840F0010394E807009847103477
:10018000AC42F6D3FFF7D8FFCC050008EC05000819
:1001900000B5034603E04FF47A7000F006F8181E2D
:1001A000A3F101018BB2F6D100BD00EBC001C90083
:1001B0004FF0E0225161002191611146096941F03F
:1001C000040111611146096921F002011161114612
:1001D000096941F00101116100BF4FF0E021096997
:1001E00001F480310029F8D04FF0E021096921F0B5
:1001F00001014FF0E02211617047000002490968D7
:100200000143014A116070470C0801400249096826
:100210008143014A116070470C08014000B5034654
:1002200005480068184018B11846FFF7EFFF02E0D4
:100230001846FFF7E3FF00BD080801402648C069E3
:1002400040F008002449C8610846806940F0040075
:1002500088612248006840F0B000204908600846E4
:10026000006820F04000086041F61F401C490880EB
:100270006320091D08805F20194910310880184843
:100280001038008820F4407015491039088008465D
:10029000008840F4C04008800846008820F4805060
:1002A00008800F480838008820F020000C490839E1
:1002B00008800846008840F0100008800848283868
:1002C000008820F010000649283908800846008878
:1002D00020F008000880704700100240000801402C
:1002E000280C00400149088070470000380C00408D
:1002F0000348008840F00100014908807047000071
:10030000000C004000BF0549098801F08001002968
:10031000F9D00249091D08807047000000380140EB
:1003200010B50948006840F48060074908600A2059
:10033000FFF72EFF0548006800F4806010B101202F
:10034000FFF76CFF10BD000014040140081C0140C1
:1003500010B500F001F810BD0CB500200190009020
:100360003348006840F480303149086000BF3048AD
:10037000006800F4003000900198401C0190009843
:1003800018B90198B0F5A06FF1D12948006800F4C0
:10039000003010B10120009001E000200090009892
:1003A000012843D12348006840F01000214908602B
:1003B0000846006820F0070008600846006840F022
:1003C000020008601A4840681949486008464068B9
:1003D00048600846406840F48060486008464068CD
:1003E00020F47C1048600846406840F4E8104860FB
:1003F0000846006840F08070086000BF0C48006844
:1004000000F000700028F9D00948406820F003008F
:10041000074948600846406840F00200486000BF55
:100420000348406800F00C000828F9D10CBD00001A
:10043000001002400020024010B50A480088401C0D
:100440000849088008460088B0F57A7F08DB01205B
:10045000FFF7E4FE00200349088003A000F070F8D5
:1004600010BD000002000020310A000010B5134842
:10047000006840F0010011490860084640681049D2
:1004800008400E494860084600680E4908400B497C
:1004900008600846006820F480200860084640682C
:1004A00020F4FE0048604FF41F008860FFF750FF03
:1004B0004FF000600449086010BD000000100240C9
:1004C0000000FFF8FFFFF6FE08ED00E010B506485B
:1004D000008A20F00100044908820220FFF79EFEF6
:1004E00002A000F02DF810BD00100040310A0000FD
:1004F0000F48008800F0200060B10D48001D008802
:100500000C490D4A127888540B480078401C0A495F
:1005100008700CE00648008800F0100038B104486C
:1005200000880348001D00880120044908707047B6
:1005300000380140080000200000002001000020D9
:10054000014A024900F013B8910500080400002098
:1005500002E008C8121F08C1002AFAD1704770478C
:10056000002001E001C1121F002AFBD170472DE9D4
:10057000F04116460F460446002503E03946B047D1
:10058000641C6D1C20780028F8D12846BDE8F08155
:1005900000B502460B46D0B2FFF7B4FE104600BDD0
:1005A000FFF74CFEFFF7A4FE0A2401250DE0632CA3
:1005B00001D0012C01D1684245B2601984B22046B5
:1005C000FFF790FE0A20FFF7E3FDF0E7EC050008D7
:1005D000000000200800000050050008F405000895
:1005E000080000206804000060050008000000000A
:0405F0000000000007
:0400000508000131BD
:00000001FF
