:020000040800F2
:100000007008002049010008510100085301000850
:1000100055010008570100085901000800000000C0
:100020000000000000000000000000005B0100086C
:100030005D010008000000005F010008450B00089A
:100040006301000863010008630100086301000800
:1000500063010008630100086301000863010008F0
:1000600063010008630100086301000863010008E0
:10007000630100086301000831020008590200080A
:1000800063010008630100086301000863010008C0
:1000900063010008630100086301000863010008B0
:1000A00063010008D90B0008630100086301000820
:1000B0006301000863010008630100086301000890
:1000C0006301000863010008630100086301000880
:1000D00063010008390C000863010008630100088F
:1000E0006506000863010008630100086301000859
:1000F0006301000863010008630100086301000850
:10010000630100086301000863010008630100083F
:100110006301000863010008150C00086301000872
:10012000630100086301000863010008630100081F
:10013000DFF810D000F06AF800480047990F000877
:10014000AFF300807008002006488047064800474B
:10015000FEE7FEE7FEE7FEE7FEE7FEE7FEE7FEE777
:10016000FEE7FEE7790B0008310100082DE9F05F9A
:100170000546002092469B46884606468146402416
:100180001BE0284641464746224600F02FF85346DA
:100190005A46C01A914110D311461846224600F023
:1001A00016F82D1A67EB01084F4622460120002160
:1001B00000F00DF817EB00094E41201EA4F10104D8
:1001C000DFDC484631462A464346BDE8F09F202AF8
:1001D00004DB203A00FA02F1002070479140C2F19E
:1001E000200320FA03F3194390407047202A04DBD0
:1001F000203A21FA02F00021704721FA02F3D040A0
:10020000C2F120029140084319467047064C074D41
:1002100006E0E06840F0010394E8070098471034D6
:10022000AC42F6D3FFF788FF6C3F00088C3F000814
:100230000848006800F4005050B10648406840F497
:100240008050044948600846406C20F00100486432
:1002500070470000000002400748006800F40030CA
:1002600040B10548406840F400300349486001202F
:10027000024908707047000000000240040000209E
:1002800000B5034603E04FF47A7000F006F8181E3C
:10029000A3F101018BB2F6D100BD00EBC001C90092
:1002A0004FF0E0225161002191611146096941F04E
:1002B000040111611146096921F002011161114621
:1002C000096941F00101116100BF4FF0E0210969A6
:1002D00001F480310029F8D04FF0E021096921F0C4
:1002E00001014FF0E0221161704700004C480068A6
:1002F00040F033004A490860081D00684949084336
:100300004749091D08604848006840F04050464988
:100310000860081D006840F03330091D086040483F
:10032000006840F088003E4908600846006820F0F8
:1003300044000860081D00683C4908433849091D0D
:100340000860084600683A4908403549091D0860B8
:100350003548006840F000403349086008460068AE
:1003600020F080400860081D006840F08830091DBA
:1003700008600846006800F0BB3008602D4800683F
:1003800040F00B002B4908600846006820F004008C
:1003900008602348006840F44C1021490860084672
:1003A000006840F4080008600846006820F48800EF
:1003B00008601D48006840F033001B49086008468B
:1003C000006840F0880008600846006820F044009B
:1003D00008601848406840F44030164948600846B4
:1003E000406840F4002048600846406820F48020BF
:1003F00048601148006820F00C000F49086008466A
:10040000006840F0030008600A48406820F040405F
:10041000084948600846406840F0405048607047CE
:10042000001401403303003300180140880800889D
:10043000BBFBFFBB00200140000C014000B52B4876
:10044000806940F00800294988610846806940F0C9
:10045000200088610846806940F0400088610846B5
:10046000806940F0800088610846806940F48070AF
:1004700088610846406940F480704861FFF736FFA4
:100480004FF02040806940F001004FF0204188612A
:100490000846806920F0020088610846806920F0E3
:1004A0000C0088610846806920F0300088610846A9
:1004B000806940F0100088610846806940F48050EF
:1004C00088610846C06920F0F000C8610846C0692C
:1004D00020F00F00C8610846C06920F47F40C86161
:1004E0000846C06940F48E40C86100BD001002405B
:1004F000024909680143014A116070470C08014034
:10050000024909688143014A116070470C080140A3
:1005100000B5034605480068184018B11846FFF7B3
:10052000EFFF02E01846FFF7E3FF00BD08080140B7
:1005300010B53F48806940F004003D498861084695
:10054000806940F4804088613A48006840F0B0001B
:10055000384908600846006820F0400008600846F6
:10056000006840F4806008600846006820F430604D
:10057000086040F2712030490880081D008820F48E
:100580008050091D08800846008820F4806008809B
:10059000081D008820F44050091D0880081F0088AD
:1005A00040F00800091F08800846008840F0040059
:1005B00008800846008840F020000880084600882F
:1005C00040F010000880032002461C4B19684FF6CB
:1005D000FF0319401A4B0B4343EA0221174B1960E2
:1005E00000BF25200321002808DA0A07140E134A49
:1005F0000C3200F00F031B1FD45403E00A07130E44
:10060000104A135400BF252000F01F020121914021
:100610004209920002F1E022C2F8001100BF064830
:10062000001D008840F400500349091D088010BDDA
:100630000010024004080140083801400CED00E0C1
:100640000000FA0500E400E000BF0549098801F058
:1006500080010029F9D00249091D08807047000077
:100660000038014010B50948006840F4806007492F
:1006700008600A20FFF704FE0548006800F4806067
:1006800010B10120FFF744FF10BD00001404014029
:10069000081C01400348006840F00100014908605F
:1006A000704700000C0C014010B504464FF4F07385
:1006B0004FF4A0720021084600F008F92C2000F049
:1006C000C3F9002203E0204600F0C2F9521CB2F543
:1006D000163FF8D310BD10B5FFF7B0FE00F0E0F8FC
:1006E000FFF7D8FF00F01FF810BD00000148008898
:1006F000704700000008006C00B50022042000F0E4
:10070000A3F9FFF7F3FFFFF7F1FFC0B242EA00429F
:10071000FFF7ECFFC0B242EA0022FFF7E7FFC0B2EA
:100720000243104600BD10B5E02000F08DF9002016
:1007300000F08EF9072000F08BF9102000F088F906
:10074000092000F085F9172000F082F90B2000F055
:100750007FF9412000F07CF9892000F079F94B20E5
:1007600000F076F90A2000F073F90C2000F070F91F
:100770000E2000F06DF9182000F06AF91B2000F03F
:1007800067F90F2000F064F9E12000F05DF9002026
:1007900000F05EF9172000F05BF91A2000F058F91C
:1007A000042000F055F90E2000F052F9062000F068
:1007B0004FF92F2000F04CF9452000F049F9432073
:1007C00000F046F9022000F043F90A2000F040F959
:1007D000092000F03DF9322000F03AF9362000F00F
:1007E00037F90F2000F034F9C02000F02DF9112066
:1007F00000F02EF9092000F02BF9C12000F024F9B7
:10080000022000F025F9032000F022F9C52000F0B5
:100810001BF9002000F01CF90A2000F019F98020D3
:1008200000F016F9B12000F00FF9B02000F010F937
:10083000112000F00DF9B42000F006F9022000F0BC
:1008400007F9B62000F000F90A2000F001F9A22013
:1008500000F0FEF8B72000F0F7F8C62000F0F8F836
:10086000BE2000F0F1F8002000F0F2F8042000F0C3
:10087000EFF83A2000F0E8F8552000F0E9F81120F0
:1008800000F0E2F8362000F0DFF8082000F0E0F891
:100890007820FFF7F5FC292000F0D6F810BD000005
:1008A00010B50948C06820F400400749C8606420BA
:1008B000FFF7E6FC0448C06840F400400249C86005
:1008C0006420FFF7DDFC10BD0020014030B5044678
:1008D0000D462A2000F0B8F8201200F0B9F8E0B276
:1008E00000F0B6F8A118491EC1F30F2000F0B0F8CF
:1008F000A118491EC8B200F0ABF82B2000F0A4F8F4
:10090000281200F0A5F8E8B200F0A2F8E918491E94
:10091000C1F30F2000F09CF8E918491EC8B200F09E
:1009200097F830BD2DE9F04F0746884616461C461D
:10093000DDF82490A24604EBDA70C0F34F022346A0
:1009400041463846FFF7C2FF2C2000F07DF8A6F1A3
:10095000200085B2102C1FD100221AE0374800EB8E
:100960000510835C4FF0000A0EE003F0010018B19F
:10097000484600F06DF802E00A9800F069F85B1054
:100980000AF1010000F0FF0ABAF1080FEDDB501C7C
:1009900082B2102AE2DB4EE0202C1FD100221AE0A6
:1009A000274800EB8510835C4FF0000A0EE003F04F
:1009B000010018B1484600F04BF802E00A9800F038
:1009C00047F85B100AF1010000F0FF0ABAF1080FC6
:1009D000EDDB501C82B2402AE2DB2CE0182C2AD13D
:1009E000002226E005EB4500164901EB0010835C70
:1009F000104602EBD0714910A2EB410109B9082160
:100A000000E004218B464FF0000A0EE003F00100E5
:100A100018B1484600F01CF802E00A9800F018F8F7
:100A20005B100AF1010000F0FF0ADA45EEDB501C12
:100A300082B2302AD6DBBDE8F08F0000EC0F000850
:100A4000AC270008DC1500084FF0D841088070473B
:100A500001490880704700000008006C10B500F0E4
:100A600001F810BD0CB500200190009033480068DB
:100A700040F480303149086000BF3048006800F41D
:100A8000003000900198401C0190009818B901981E
:100A9000B0F5A06FF1D12948006800F4003010B122
:100AA0000120009001E0002000900098012843D12F
:100AB0002348006840F0100021490860084600689B
:100AC00020F0070008600846006840F00200086057
:100AD0001A48406819494860084640684860084616
:100AE000406840F4806048600846406820F47C100C
:100AF00048600846406840F4E810486008460068CE
:100B000040F08070086000BF0C48006800F0007082
:100B10000028F9D00948406820F0030007494860E0
:100B20000846406840F00200486000BF0348406843
:100B300000F00C000828F9D10CBD000000100240A4
:100B40000020024010B50A480088401C084908806F
:100B500008460088B0F57A7F08DB0120FFF7D8FC53
:100B600000200349088003A000F08EF810BD0000AB
:100B700002000020310A000010B51348006840F060
:100B800001001149086008464068104908400E49B4
:100B90004860084600680E4908400B49086008464E
:100BA000006820F4802008600846406820F4FE00B9
:100BB00048604FF41F008860FFF750FF4FF000605F
:100BC0000449086010BD0000001002400000FFF85A
:100BD000FFFFF6FE08ED00E010B509A000F054F8A4
:100BE0000B48008820F001000949088008481038A7
:100BF000008820F0010006491039088010BD00006F
:100C0000BDF8C8EBB8FCD0C2D6D0B6CF0A00000001
:100C1000102C014010B50648008A20F0010004495C
:100C200008820220FFF774FC02A000F02DF810BD2E
:100C300000100040310A00000F48008800F020003A
:100C400060B10D48001D00880C490D4A1278885487
:100C50000B480078401C0A4908700CE006480088E0
:100C600000F0100038B1044800880348001D0088D7
:100C70000120044908707047003801400C00002032
:100C800000000020010000200FB4054B10B503A99F
:100C9000044A029800F018F810BC5DF814FB00003C
:100CA000890F00080800002002E008C8121F08C1D0
:100CB000002AFAD170477047002001E001C1121FDD
:100CC000002AFBD1704700002DE9FF4F8DB09B46F5
:100CD0000F460446002606E025280BD05A460F99F9
:100CE0009047641C761C20780028F5D111B030465E
:100CF000BDE8F08F0025A8460122984900E0054391
:100D000014F8013F203B02FA03F00842F7D12078A3
:100D10002E2817D114F8010F45F004052A280ED00B
:100D20006FF02F022078A0F1300109290AD808EBD2
:100D3000880102EB410100EB0108641CF2E757F85F
:100D4000048B641C20786C280DD004DC4C2812D055
:100D50006A2811D104E074280DD07A280CD10AE059
:100D600045F4001507E0617845F48015814202D111
:100D7000641C05F58015641C2078692844D008DCC3
:100D80000028B3D0582867D063280FD0642808D132
:100D90003AE0702865D0732812D075285AD0782888
:100DA0005AD05A460F999047761CD5E017F8040B95
:100DB0008DF8000000208DF80100E946012003E0D5
:100DC00057F8049B4FF0FF3069074FF0000501D43E
:100DD0000AE06D1C45450DDA8542FADB19F805106D
:100DE0000029F6D106E06D1C8542FCDB19F80510E0
:100DF0000029F8D12E4404E019F8010B5A460F9946
:100E000090476D1EF8D2A7E00A200021CDE9080125
:100E1000C5F3025002280CD001CFC117021E71F198
:100E200000020CDA0023D0EB030063EB01012D225A
:100E300008E0FF1D27F00707F7E80201EEE72A05A3
:100E400004D52B228DF8282001223CE0EA073AD075
:100E50002022F7E70A2000E010200021CDE9080158
:100E600007E01020002145F00405CDE908014FF00E
:100E70000808C5F30250022810D001CF00214FF01E
:100E8000000A2A0720D52278702A0DD0DDE908C390
:100E90008CF0100C5CEA030C0CD015E0FF1D27F061
:100EA0000707F7E80201EAE740228DF828204FF013
:100EB000010A0CE050EA010306D030238DF82830F7
:100EC0008DF82920022292462278582A04D024A2A2
:100ED0000DF120090B9209E026A2F9E7DDE90823CC
:100EE000FFF744F90B9B9B5C09F8013D50EA0102B6
:100EF000F4D1ADEB090020300890680701D44FF021
:100F000001080899884503DD0898A8EB000000E077
:100F100000208046002506E00AA85A46405D0F9949
:100F200090476D1C761C5545F6DB04E030205A4690
:100F30000F999047761CB8F10001A8F10108F5DC83
:100F400005E019F8010B5A460F999047761C08994D
:100F5000481E08900029F4DC641CC4E6092801003E
:100F6000303132333435363738396162636465661F
:100F700000000000303132333435363738394142E1
:100F8000434445460000000000B502460B46D0B27F
:100F9000FFF75AFB104600BD1CB5FFF7C9FAFFF773
:100FA0009AFBFFF7A9FB044621460EA0FFF76CFE53
:100FB0004FF6FF70FFF778FB1F20C102182368224D
:100FC000CDE9001064210846FFF7ACFC1F20C102E8
:100FD00018236922CDE9001064217020FFF7A2FCDC
:100FE00000BFFEE749443A30782578000000000051
:100FF00000000000000000000000000000000008E9
:1010000008080808080800001818000000486C24A8
:10101000120000000000000000000000000000249A
:1010200024247F1212127F12121200000000081CEA
:101030002A2A0A0C1828282A2A1C0808000000223C
:10104000251515152A585454542200000000000C90
:101050001212120A76252911916E0000000606046C
:10106000030000000000000000000000004020100D
:1010700010080808080808101020400000020408A2
:1010800008101010101010080804020000000000E2
:1010900008086B1C1C6B0808000000000000000022
:1010A000080808087F080808080000000000000081
:1010B000000000000000000006060403000000001D
:1010C00000000000FE000000000000000000000022
:1010D0000000000000000000060600000000804044
:1010E000402020101008080404020200000000182C
:1010F00024424242424242422418000000000008BA
:101100000E08080808080808083E00000000003C17
:101110004242422020100804427E00000000003CB1
:101120004242201820404042221C000000000020C3
:101130003028242422227E20207800000000007E17
:101140000202021A26404042221C00000000003821
:101150002402021A26424242241800000000007EA7
:101160002222101008080808080800000000003CAF
:101170004242422418244242423C0000000000182F
:101180002442424264584040241C000000000000F9
:1011900000001818000000001818000000000000EF
:1011A00000000008000000000008080400000040E3
:1011B0002010080402040810204000000000000075
:1011C00000007F0000007F0000000000000000021F
:1011D0000408102040201008040200000000003C19
:1011E0004242464020101000181800000000001C69
:1011F000225A555555552D42221C0000000000086A
:1012000008181414243C224242E700000000001F8A
:101210002222221E22424242221F00000000007CA5
:101220004242010101010142221C00000000001F96
:101230002242424242424242221F00000000003F3E
:101240004212121E12120242423F00000000003FF2
:101250004212121E12120202020700000000003C9D
:101260002222010101712122221C0000000000E75E
:10127000424242427E42424242E700000000003EBB
:101280000808080808080808083E00000000007C5C
:1012900010101010101010101010110F0000007717
:1012A00022120A0E0A121222227700000000000702
:1012B0000202020202020202427F000000000077E6
:1012C000363636362A2A2A2A2A6B0000000000E326
:1012D00046464A4A52525262624700000000001CD1
:1012E0002241414141414141221C00000000003F98
:1012F000424242423E020202020700000000001C7D
:101300002241414141414D53321C60000000003FE9
:101310004242423E1212222242C700000000007CDC
:101320004242020418204042423E00000000007F7A
:101330004908080808080808081C0000000000E721
:101340004242424242424242423C0000000000E728
:101350004242222424141418080800000000006BE4
:10136000494949495555362222220000000000E72C
:10137000422424181818242442E7000000000077B3
:101380002222141408080808081C00000000007E2F
:101390002120101008040442423F00000078080891
:1013A0000808080808080808080878000000020271
:1013B000040408080810102020204040001E1010CF
:1013C000101010101010101010101E0000384400E3
:1013D000000000000000000000000000000000000D
:1013E0000000000000000000000000FF00060800F0
:1013F00000000000000000000000000000000000ED
:101400000000003C4278444242FC0000000000031F
:101410000202021A26424242261A00000000000080
:10142000000000384402020244380000000000605E
:10143000404040784442424264D80000000000002E
:101440000000003C427E0202423C0000000000F02E
:101450008808087E08080808083E00000000000010
:101460000000007C22221C023C42423C000000039F
:101470000202023A4642424242E700000000000CEB
:101480000C00000E08080808083E000000000030AC
:1014900030000038202020202020221E00000003E1
:1014A00002020272120A1612227700000000000ED9
:1014B0000808080808080808083E000000000000A6
:1014C0000000007F9292929292B70000000000000C
:1014D0000000003B4642424242E70000000000009C
:1014E0000000003C42424242423C0000000000003A
:1014F0000000001B26424242221E0207000000009C
:101500000000007844424242447840E0000000007D
:10151000000000774C040404041F000000000000D9
:101520000000007C42023C40423E000000000000FF
:101530000008083E08080808083000000000000005
:10154000000000634242424262DC000000000000F2
:10155000000000E7422424140808000000000000F6
:10156000000000EB49495555222200000000000010
:101570000000007624181818246E000000000000F7
:10158000000000E7422424141808080700000000A7
:101590000000007E22100808447E000000C02020C9
:1015A00020202010202020202020C000101010100B
:1015B0001010101010101010101010100006080855
:1015C0000808081008080808080806000C32C200BD
:1015D000000000000000000000000000000000000B
:1015E00000000000000000000000000000000000FB
:1015F00000000000000000000000000000000000EB
:1016000000000000000000000000000000000000DA
:1016100000000000E000E000E000E000E00040002A
:10162000400040004000400040000000000000007A
:10163000E000E000E000000000000000000000000A
:101640006006600630039801880044000000000036
:10165000000000000000000000000000000000008A
:10166000000000000000000000000000000000007A
:101670000000000000000802080208020802FE073D
:10168000FE070802080204010401FE07FE07040128
:10169000040104010401000000000000000000003B
:1016A000000040004000F00158034C034C034C0084
:1016B00058007000E000C001C00140034C034C031F
:1016C0004C034801F0004000400000000000000012
:1016D0000000000000000E030A01110191009100BA
:1016E000D1005100FA03AE026004500450045804C3
:1016F000480488028403000000000000000000008D
:101700000000000000003800640064006400640011
:10171000A4031C010C011A019200B300E300630052
:10172000C300A6041C03000000000000000000002D
:101730000C001C0010001000080006000000000053
:101740000000000000000000000000000000000099
:101750000000000000000000000000000000000089
:1017600000040002000180018000C000C000600091
:10177000600060006000600060006000C000C000A9
:101780008000800100010002000400000000000051
:101790000200040008001800100030003000600053
:1017A0006000600060006000600060003000300099
:1017B00010001800080004000200000000000000F3
:1017C00000000000000000004000400040004E0EFD
:1017D0005C07F001F0015C074E0E40004000400045
:1017E00000000000000000000000000000000000F9
:1017F0000000000000000000000040004000400029
:1018000040004000FE0F400040004000400040000B
:1018100000000000000000000000000000000000C8
:1018200000000000000000000000000000000000B8
:1018300000000000000000000000000000000000A8
:101840000C001C0010001000080006000000000042
:101850000000000000000000000000000000000088
:1018600000000000FE070000000000000000000073
:101870000000000000000000000000000000000068
:101880000000000000000000000000000000000058
:101890000000000000000000000000000000000048
:1018A0001C001C001C0000000000000000000000E4
:1018B0000004000600020003000100018000800017
:1018C00040004000600020002000100010000800D0
:1018D00008000C00040006000200000000000000E8
:1018E000000000000000F00098010C030C03060645
:1018F00006060606060606060606060606060C0385
:101900000C039801F000000000000000000000003F
:10191000000000000000400060007C0060006000EB
:1019200060006000600060006000600060006000B7
:1019300060006000FC0300000000000000000000E8
:10194000000000000000F800840102030603060303
:10195000000380018001C000200010000802040282
:101960000202FE03FE030000000000000000000071
:101970000000000000007800C40086018601860196
:101980008001C0007000800100010003060306030F
:1019900006038401F80000000000000000000000C1
:1019A0000000000000018001C001C001A001900101
:1019B00090018801840184018201FE078001800179
:1019C00080018001E007000000000000000000002E
:1019D000000000000000FC03FC03040004000400FD
:1019E0000400F4008C010403000300030603060353
:1019F00082018401F80000000000000000000000E7
:101A0000000000000000E00118030C030C000400BB
:101A10000600E60116030E0606060606060604067E
:101A20000C021803F000000000000000000000009D
:101A3000000000000000F807FC070C02040104018C
:101A40000001800080004000400040006000600015
:101A50006000600060000000000000000000000066
:101A6000000000000000F8010C030606060606064A
:101A70000E023C03F000CC0104030606060606062F
:101A800006060C03F001000000000000000000004A
:101A9000000000000000F0000C010C030602060626
:101AA0000606060606078C067806000600030003F5
:101AB0000C018C0178000000000000000000000014
:101AC0000000000000000000000000000000E00036
:101AD000E000E00000000000000000000000000046
:101AE000E000E000E0000000000000000000000056
:101AF00000000000000000000000000000000000E6
:101B00006000600000000000000000000000000015
:101B100000006000600040002000000000000000A5
:101B200000000000000400020001800040002000CE
:101B30001000080004000800100020004000800091
:101B4000000100020004000000000000000000008E
:101B50000000000000000000000000000000000085
:101B6000FE070000000000000000FE07000000006B
:101B70000000000000000000000000000000000065
:101B80000000000004000800100020004000800059
:101B9000000100020004000200018000400020005B
:101BA0001000080004000000000000000000000019
:101BB00000000000F0010C030206020606060606FD
:101BC00000038001600020002000200000000000D1
:101BD00070007000700000000000000000000000B5
:101BE000000000000000E00138060804CC0A640B85
:101BF00026092609160916099609960566030C0892
:101C00000C041802E00100000000000000000000C9
:101C1000000000000000600060007000D000D000F4
:101C2000C800880188018801F80104030403040343
:101C3000040606060F0F0000000000000000000070
:101C4000000000000000FF008601060306030603F3
:101C500006038601FE0006030602060606060606C1
:101C600006060603FF01000000000000000000005F
:101C7000000000000000E00718060C040C0404003B
:101C800006000600060006000600060006040C0416
:101C90000C021801F000000000000000000000002D
:101CA0000000000000007F00860106030603060610
:101CB00006060606060606060606060606060603C7
:101CC0000603C6017F0000000000000000000000C5
:101CD000000000000000FF030602060406000600E4
:101CE00086008600FE0086008600060006000604C8
:101CF00006040602FF0300000000000000000000D0
:101D0000000000000000FF030603060406040600AE
:101D100086008600FE00860086000600060006009B
:101D2000060006000F000000000000000000000098
:101D3000000000000000F00218030C020C02040076
:101D40000600060006000600C60F060306030C0385
:101D50000C031803F0000000000000000000000069
:101D60000000000000000F0F060606060606060625
:101D700006060606FE07060606060606060606060A
:101D8000060606060F0F000000000000000000001D
:101D9000000000000000FC036000600060006000C4
:101DA0006000600060006000600060006000600033
:101DB00060006000FC030000000000000000000064
:101DC000000000000000F00F800180018001800110
:101DD00080018001800180018001800180018001FB
:101DE0008001800180018601C6007C0000000000A7
:101DF000000000000000CF070601860046004600F4
:101E0000260036003E006E00E600C600C6018601D0
:101E1000060306078F0F000000000000000000000E
:101E20000000000000000F0006000600060006008B
:101E3000060006000600060006000600060006046E
:101E400006040602FF03000000000000000000007E
:101E50000000000000000F0F0E070E070E079A0685
:101E60009A069A069A065A06720672067206720652
:101E700022062206270F00000000000000000000DC
:101E8000000000000000070E0E040E041A041A04DD
:101E9000320462046204C204C2048205020702071B
:101EA0000206020607040000000000000000000017
:101EB000000000000000F00098010C030C02060670
:101EC00006060606060606060606060606060C02B0
:101ED0000C039801F000000000000000000000006A
:101EE000000000000000FF010603060606060606C5
:101EF000060606060603FE010600060006000600AA
:101F0000060006000F0000000000000000000000B6
:101F1000000000000000F00098010C030C0206060F
:101F200006060606060606060606060676064C029F
:101F30008C038801F001800700030000000000000E
:101F4000000000000000FF01060306060606060664
:101F500006060603FE006600C600C600860186016E
:101F6000060306030F0E0000000000000000000042
:101F7000000000000000F8040C0706040604060038
:101F80000E003C00F000C00300030006020602063B
:101F900006060E03F2010000000000000000000031
:101FA000000000000000FE07620461086108600094
:101FB0006000600060006000600060006000600021
:101FC00060006000F0000000000000000000000061
:101FD0000000000000000F0E0604060406040604BC
:101FE00006040604060406040604060406040604A1
:101FF00006040C02F80100000000000000000000D0
:102000000000000000001F0F0E060C020C020C0264
:102010000C011801180118011801B000B000B0003F
:10202000F000600060000000000000000000000000
:10203000000000000000EF0E6604660466026602FF
:10204000E602EC02EC02DC01DC01DC01DC019C01BB
:1020500088008800880000000000000000000000E8
:102060000000000000009E070C03180118019800F2
:10207000B000700060006000E000D000D001980166
:1020800088010C039E070000000000000000000013
:102090000000000000001F0F0E060C020C011801CA
:1020A0001801B000B00070006000600060006000C7
:1020B00060006000F8010000000000000000000067
:1020C000000000000000FC07040382038001C0013F
:1020D000C000C0006000600030003000180018042C
:1020E0001C040C02FE0300000000000000000000C1
:1020F000E007200020002000200020002000200019
:1021000020002000200020002000200020002000CF
:102110002000200020002000E00700000000000058
:102120000000000004000800080008001000100073
:10213000200020002000400040008000800080003F
:102140000001000100020002000200040000000083
:10215000FC00800080008000800080008000800003
:10216000800080008000800080008000800080006F
:102170008000800080008000FC0000000000000063
:10218000E000B001080200000000000000000000B4
:10219000000000000000000000000000000000003F
:1021A000000000000000000000000000000000002F
:1021B000000000000000000000000000000000001F
:1021C000000000000000000000000000000000000F
:1021D00000000000000000000000FF0F00000000F1
:1021E0001800600000000000000000000000000077
:1021F00000000000000000000000000000000000DF
:1022000000000000000000000000000000000000CE
:1022100000000000000000000000000000000000BE
:10222000F0010C030C03E00338030C030603060360
:1022300006038E0B7C0F0000000000000000000071
:102240000000000008000E000C000C000C000C0048
:10225000CC013C031C060C060C060C060C060C06F6
:102260000C021C03F401000000000000000000004C
:10227000000000000000000000000000000000005E
:10228000F0008C018C0186010600060006000602A3
:102290000C020C01F0000000000000000000000033
:1022A000000000000002800300030003000300039D
:1022B00078038C030C0306030603060306030603D8
:1022C00004038C07780100000000000000000000FB
:1022D00000000000000000000000000000000000FE
:1022E000E001180308060C06FC070C000C000C00AB
:1022F00018043802E00100000000000000000000A7
:10230000000000000000C00360063006300030000E
:10231000FE0330003000300030003000300030006C
:1023200030003000FC010000000000000000000050
:10233000000000000000000000000000000000009D
:10234000F00E98090C030C030C039801F8000C0024
:102350007C00F803060606060E07F80100000000E0
:102360000000000008000E000C000C000C000C0027
:10237000EC011C030C030C030C030C030C030C03F7
:102380000C030C039E07000000000000000000008A
:10239000000000000000600060000000000000007D
:1023A0007C00600060006000600060006000600011
:1023B00060006000FC03000000000000000000005E
:1023C000000000000000800180010000000000000B
:1023D000F001800180018001800180018001800185
:1023E0008001800180018001CC007C0000000000A1
:1023F0000000000008000E000C000C000C000C0097
:10240000CC038C00CC004C006C007C00DC00CC00C9
:102410008C018C019E0700000000000000000000FD
:102420000000000040007C00600060006000600070
:10243000600060006000600060006000600060009C
:1024400060006000FC0300000000000000000000CD
:10245000000000000000000000000000000000007C
:102460007707EE0666066606660666066606660672
:1024700066066606EF0E0000000000000000000087
:10248000000000000000000000000000000000004C
:10249000CE013C030C030C030C030C030C030C03D4
:1024A0000C030C039E070000000000000000000069
:1024B000000000000000000000000000000000001C
:1024C000F00098010C030606060606060606060638
:1024D0000C030C03F00000000000000000000000EE
:1024E00000000000000000000000000000000000EC
:1024F000EE011C030C060C060C060C060C060C0662
:102500000C031C03EC010C000C003E00000000005A
:1025100000000000000000000000000000000000BB
:1025200078028C030C030603060306030603060366
:1025300004038C03780300030003C00700000000BD
:10254000000000000000000000000000000000008B
:102550009F075806380018001800180018001800C7
:1025600018001800FF00000000000000000000003C
:10257000000000000000000000000000000000005B
:10258000F00718060C040C003800F0018003040664
:1025900004060C03FC010000000000000000000025
:1025A000000000000000000020002000300030008B
:1025B000FE013000300030003000300030003000CC
:1025C00030023002E00100000000000000000000C6
:1025D00000000000000000000000000000000802F1
:1025E0008E030C030C030C030C030C030C030C03F1
:1025F0000C039C07780100000000000000000000B0
:1026000000000000000000000000000000000000CA
:102610003E0F1C0618021802300130013001E000A4
:10262000E000E000400000000000000000000000AA
:10263000000000000000000000000000000000009A
:10264000EF0DC604C604E604EC04AC039C039C0333
:102650009C030801080100000000000000000000C9
:10266000000000000000000000000000000000006A
:10267000BE0718019801B00070006000E000D000B3
:1026800098018803DE070000000000000000000041
:10269000000000000000000000000000000000003A
:1026A000BE071C0118011801B000B000B0006000A6
:1026B000600040002000200014001C00000000000A
:1026C000000000000000000000000000000000000A
:1026D000FC038401C401C000E0006000700030040D
:1026E00038041806FC030000000000000000000091
:1026F0000003800180008000800080008000800056
:102700008000C0002000C0008000800080008000A9
:102710008000800080008001000300004000400035
:1027200040004000400040004000400040004000A9
:102730004000400040004000400040004000400099
:102740004000400040004000400040000000000009
:102750000C001800100010001000100010001000F5
:102760001000300040003000100010001000100079
:1027700010001000100018000C00000000001C00E9
:10278000240042088204000700000000000000004E
:102790000000000000000000000000000000000039
:1027A0000000000000000000000000000000000029
:1027B0000000000000000000000000000000000019
:1027C0000000000000000000000000000000000009
:1027D00000000000000000000000000000000000F9
:1027E00000000000000000000000000000000000E9
:1027F000000000000000C001C001C001C001C00114
:10280000C001C00180008000800080008000800046
:10281000800000000000000000008001C003C00331
:102820008001000000000000000000000000000027
:102830000000E01CE01CF01E700E380718030801B1
:102840008400000000000000000000000000000004
:102850000000000000000000000000000000000078
:102860000000000000000000000000000000000068
:102870000000000000000000201020102010201098
:102880002010FE7FFE7F10081008100810081008A6
:1028900010081008FE7FFE7F0804080408040804DE
:1028A000080400000000000000000000000000001C
:1028B0000000000000010001C0076019103118314C
:1028C0001839183938017001E001C0038007000F82
:1028D000001D003900311C311C310C310C11180D58
:1028E000E0070001000100010000000000000000FE
:1028F00000000000000000001C1036186308630C84
:1029000063046304630263026301361D9C37802203
:102910008063406340632063206330631022183675
:10292000081C000000000000000000000000000083
:102930000000000000000000F00098018C018C01F4
:102940008C018C018C00CC007800183E1C083608E5
:10295000320863046304C304C303834306438E261F
:10296000781C0000000000000000000000000000D3
:1029700000001C003C003C003000300010000C0047
:102980000600000000000000000000000000000041
:102990000000000000000000000000000000000037
:1029A0000000000000000000000000000000000027
:1029B00000000040002000100008000C0004000689
:1029C0000003000300038001800180018001800179
:1029D000800180018001000300030003000600065F
:1029E000000C000800100020004000000000000063
:1029F0000000020004000800100030002000600009
:102A0000C000C000C0008001800180018001800101
:102A1000800180018001C000C000C0006000600033
:102A20003000100008000400020000000000000058
:102A30000000000000000000000000000001800312
:102A4000800300011C713C79783DC0070001C0077C
:102A5000783D3C791C7100018003800380010000F7
:102A60000000000000000000000000000000000066
:102A70000000000000000000000000000000000155
:102A8000000100010001000100010001FC7F0001C4
:102A90000001000100010001000100010000000030
:102AA0000000000000000000000000000000000026
:102AB0000000000000000000000000000000000016
:102AC0000000000000000000000000000000000006
:102AD0000000000000000000000000001C003C009E
:102AE0003C003000300010000C0006000000000028
:102AF00000000000000000000000000000000000D6
:102B0000000000000000000000000000FE7F000048
:102B100000000000000000000000000000000000B5
:102B200000000000000000000000000000000000A5
:102B30000000000000000000000000000000000095
:102B40000000000000000000000000000000000085
:102B50000000000000000000000018003C003C00E5
:102B6000180000000000000000000000000000004D
:102B70000000004000600020003000100018000835
:102B8000000C000400060002000300018001800028
:102B9000C000400060002000300010001800080055
:102BA0000C0004000600020000000000000000000D
:102BB0000000000000000000C007600C3018183052
:102BC000183018200C600C600C600C600C600C60FD
:102BD0000C600C600C601820183018303018600C35
:102BE000C00700000000000000000000000000001E
:102BF000000000000000000000018001F8018001D9
:102C000080018001800180018001800180018001BC
:102C10008001800180018001800180018001C0036A
:102C2000F81F00000000000000000000000000008D
:102C30000000000000000000E007101C081804302D
:102C400004300C300C300030001800080004000282
:102C50000001800040002020102008200430FC1FCC
:102C6000FC1F000000000000000000000000000049
:102C70000000000000000000E003180E0C0C0C180F
:102C80000C180C180018000C0006C003000E0018E9
:102C90000010003000300C300C300C100C18180CE8
:102CA000E003000000000000000000000000000041
:102CB0000000000000000000000C000E000E000FDD
:102CC000800E800E400E600E200E100E100E080EAC
:102CD000040E040EFE7F000E000E000E000E000E0D
:102CE000000EC07F00000000000000000000000097
:102CF0000000000000000000F03FF03F1000100056
:102D0000100008000800C807280C18180810003028
:102D10000030003000300C300C3004180418080C5F
:102D2000F0030000000000000000000000000000B0
:102D30000000000000000000800FC01020301030A4
:102D40001800180008000C008C0F6C183C301C6038
:102D50000C600C600C600C6018601820303060183B
:102D6000C00700000000000000000000000000009C
:102D70000000000000000000F83FF83F1C100C08A5
:102D80000408040400040002000200010001000124
:102D9000800080008000C000C000C000C000C000F3
:102DA000C000000000000000000000000000000063
:102DB0000000000000000000E007300C18180C3084
:102DC0000C300C301C3038187008E007B007180EB3
:102DD0000C1C063806300630063006300C18180C6D
:102DE000E003000000000000000000000000000000
:102DF0000000000000000000E00318040C080C189C
:102E00000610063006300630063006380C3C183600
:102E1000F03100300018001800180C0C0C060C03E0
:102E2000F0010000000000000000000000000000B1
:102E30000000000000000000000000000000000092
:102E40000000000000008001C003C00380010000FA
:102E5000000000000000000000008001C003C0036B
:102E600080010000000000000000000000000000E1
:102E70000000000000000000000000000000000052
:102E8000000000000000C000C000000000000000C2
:102E90000000000000000000000000000000C00072
:102EA000C0008000800040004000000000000000E2
:102EB00000000000000000200010000800040006D0
:102EC00000038001C0006000300018000C001800F2
:102ED00030006000C000800100030006000400080C
:102EE00000100020000000000000000000000000B2
:102EF00000000000000000000000000000000000D2
:102F0000000000000000FE7F000000000000000044
:102F10000000FE7F00000000000000000000000034
:102F200000000000000000000000000000000000A1
:102F300000000000000004000800100020006000F5
:102F4000C000800100030006000C001800300018CB
:102F5000000C000600038001C0006000200010008B
:102F60000800040000000000000000000000000055
:102F7000000000000000C0073018083008600C6036
:102F80001C601C601C600030001C000600018000FA
:102F9000800080008000000000008001C003C003AA
:102FA00080010000000000000000000000000000A0
:102FB0000000000000000000C0076018103018205A
:102FC0000C2F8C4D864CC64CC64C664C66446644F1
:102FD000662666266615CC1C0C4008201830301872
:102FE000C00700000000000000000000000000001A
:102FF0000000000000000001C001C001C00140014C
:10300000600320032003200330061006100610067C
:10301000F80F080C080C080C0C0C041804180618FF
:103020001F7C000000000000000000000000000005
:103030000000000000000000FE07181C18381830BF
:103040001830183018301818180CF80718181830DD
:103050001820186018601860186018601830181868
:10306000FE0F000000000000000000000000000053
:103070000000000000000000C02760381030182059
:103080000C400C4004000600060006000600060086
:103090000600060006000C400C400C2018303018CA
:1030A000C007000000000000000000000000000059
:1030B0000000000000000000FE03180E1818183071
:1030C00018301830186018601860186018601860A0
:1030D0001860186018601830183018101818180E7A
:1030E000FE030000000000000000000000000000DF
:1030F0000000000000000000FE3F1830182018609B
:103100001840180018081808180CF80F180C1808A0
:103110001808180018001800184018401820183017
:10312000FE3F000000000000000000000000000062
:103130000000000000000000FE7F1870184018C05A
:1031400018801800181018101818F81F18181810E0
:10315000181018001800180018001800180018009F
:103160007E000000000000000000000000000000E1
:103170000000000000000000C013701C10101810A8
:103180000C200C20040006000600060006000600C5
:1031900006FC063006300C300C3018301830300881
:1031A000C007000000000000000000000000000058
:1031B00000000000000000003F7E0C180C180C18E6
:1031C0000C180C180C180C180C180C18FC1F0C18E8
:1031D0000C180C180C180C180C180C180C180C18CF
:1031E0003F7E000000000000000000000000000022
:1031F0000000000000000000F81F80018001800135
:1032000080018001800180018001800180018001B6
:1032100080018001800180018001800180018001A6
:10322000F81F000000000000000000000000000087
:103230000000000000000000E07F0006000600061D
:10324000000600060006000600060006000600064E
:10325000000600060006000600060006000600063E
:10326000000600060E060E038E01FC0000000000A2
:1032700000000000000000007E7C181818081804E8
:1032800018061802180198019801D801B8033803EC
:1032900018071806180E180C181C181818301830B3
:1032A0007EFC0000000000000000000000000000A4
:1032B00000000000000000007E0018001800180048
:1032C000180018001800180018001800180018003E
:1032D000180018001800180018401840182018305E
:1032E000FE3F0000000000000000000000000000A1
:1032F00000000000000000001FF81C381C381C38BB
:103300001C3C3434343434343436743264326432F1
:1033100064326431C431C431C431C430C430843007
:103320009FFC000000000000000000000000000002
:1033300000000000000000001F7C1C103C10341036
:10334000341074106410E410C410C4118411841378
:10335000041304170416041E041C041C041C041883
:103360001F18000000000000000000000000000026
:103370000000000000000000C003300C1818081006
:103380000C300C3006600660066006600660066061
:103390000660066006600C200C3008101818300C0F
:1033A000C00300000000000000000000000000005A
:1033B0000000000000000000FE0F18181830186010
:1033C000186018601860186018301818F80F180086
:1033D000180018001800180018001800180018002D
:1033E0007E0000000000000000000000000000005F
:1033F0000000000000000000C003300C18180C1082
:103400000C300C20066006600660066006600660F0
:10341000066006600660E4612C331C321816300E1C
:10342000C007004C007C00380000000000000000D5
:103430000000000000000000FE07181C18381830BB
:103440001830183018301818180CF807980318039B
:10345000180718061806180E180C180C181C18183F
:103460007E78000000000000000000000000000066
:103470000000000000000000E027303818300C2069
:103480000C200C000C0018007800E003800F001ED8
:10349000003800700060046004600860183038185C
:1034A000C80F000000000000000000000000000045
:1034B0000000000000000000FC3F8C21846182417C
:1034C00082418001800180018001800180018001B2
:1034D00080018001800180018001800180018001E4
:1034E000E0070000000000000000000000000000F5
:1034F00000000000000000003F7C0C100C100C10BD
:103500000C100C100C100C100C100C100C100C10DB
:103510000C100C100C100C100C100C1008083804B7
:10352000E0030000000000000000000000000000B8
:1035300000000000000000003EF8182018201820AD
:103540003010301030103010600860086008E00C57
:10355000C004C004C0048003800380038003000112
:10356000000100000000000000000000000000005A
:103570000000000000000000DFF386618621862144
:103580008C210C218C238C138C138C134C1358120C
:103590005816580E380E380E380E300C1004100421
:1035A0001004000000000000000000000000000007
:1035B00000000000000000007E3E180838083004BB
:1035C000300470026002E001C001C001800180038C
:1035D0004003400720062006100C100C081808189D
:1035E0003E7C000000000000000000000000000021
:1035F00000000000000000007E7C1C10181018085D
:103600003008300C700460046002C002C002C001C7
:1036100080018001800180018001800180018001A2
:10362000E0070000000000000000000000000000B3
:103630000000000000000000F83F18180818040CF3
:10364000040E00060007000380038001C001C000D3
:10365000E000600070003000382018201C100C18AA
:10366000FE1F00000000000000000000000000003D
:103670000000C03F400040004000400040004000CB
:10368000400040004000400040004000400040003A
:10369000400040004000400040004000400040002A
:1036A000400040004000C03F00000000000000005B
:1036B0000000000000000800180018001000300092
:1036C0002000600060004000C00080008001800198
:1036D000000100030002000600060004000C0008C0
:1036E000001800180010003000200000000000004A
:1036F0000000FC03000200020002000200020002BF
:1037000000020002000200020002000200020002A9
:103710000002000200020002000200020002000299
:10372000000200020002FC03000000000000000094
:1037300000008007C00620081010000000000000F4
:103740000000000000000000000000000000000079
:103750000000000000000000000000000000000069
:103760000000000000000000000000000000000059
:103770000000000000000000000000000000000049
:103780000000000000000000000000000000000039
:103790000000000000000000000000000000000029
:1037A00000000000000000000000FFFF000000001B
:1037B00000007800C00000010000000000000000D0
:1037C00000000000000000000000000000000000F9
:1037D00000000000000000000000000000000000E9
:1037E00000000000000000000000000000000000D9
:1037F00000000000000000000000000000000000C9
:10380000000000000000F00318060C0C0C0C000C6B
:10381000800F700C1C0C0C0C060C060C064C0C4F8C
:10382000F838000000000000000000000000000068
:1038300000000000000010001E0018001800180012
:10384000180018001800180FD818383038601860A1
:1038500018601860186018601860182038307818E0
:10386000C807000000000000000000000000000089
:103870000000000000000000000000000000000048
:10388000000000000000C007700C181818180C1871
:103890000C000C000C000C000C2018201810300834
:1038A000C007000000000000000000000000000051
:1038B0000000000000000010001E00180018001892
:1038C000001800180018E01B301C181818180C18E5
:1038D0000C180C180C180C180C180818181C307A36
:1038E000E0090000000000000000000000000000EF
:1038F00000000000000000000000000000000000C8
:10390000000000000000C007300C181808100C3030
:103910000C30FC3F0C000C000C0018201810701824
:10392000C0070000000000000000000000000000D0
:103930000000000000000000003E80C380C0C0C046
:10394000C000C000C000FC1FC000C000C000C0001C
:10395000C000C000C000C000C000C000C000C00067
:10396000F80F000000000000000000000000000050
:103970000000000000000000000000000000000047
:10398000000000000000C077306C101818181818DC
:1039900018181018300CF00718001800F00FF03F3E
:1039A00008700C600C600C603838E00F00000000FC
:1039B00000000000000010001E0018001800180091
:1039C000180018001800980FD81838301830183020
:1039D00018301830183018301830183018301830A7
:1039E0007EFC00000000000000000000000000005D
:1039F000000000000000000080038003800300003E
:103A0000000000000001F8018001800180018001B8
:103A1000800180018001800180018001800180019E
:103A2000F81F00000000000000000000000000007F
:103A300000000000000000000038003800380000DE
:103A4000000000000010801F001800180018001867
:103A500000180018001800180018001800180018A6
:103A6000001800180018180C1806F00300000000D9
:103A700000000000000010001E00180018001800D0
:103A8000180018001800183E180C18061803180122
:103A90009801D801380318071806180C181C1818B4
:103AA0007E7C00000000000000000000000000001C
:103AB0000000000000000001F80180018001800189
:103AC00080018001800180018001800180018001EE
:103AD00080018001800180018001800180018001DE
:103AE000F81F0000000000000000000000000000BF
:103AF00000000000000000000000000000000000C6
:103B0000000000000800EE1C9C338C318C318C319D
:103B10008C318C318C318C318C318C318C318C31BD
:103B2000DE7B00000000000000000000000000003C
:103B30000000000000000000000000000000000085
:103B40000000000010001E0FD81838301830183050
:103B50001830183018301830183018301830183025
:103B60007EFC0000000000000000000000000000DB
:103B70000000000000000000000000000000000045
:103B8000000000000000C007701C103018300C60EE
:103B90000C600C600C600C600C6018301830301831
:103BA000C00700000000000000000000000000004E
:103BB0000000000000000000000000000000000005
:103BC0000000000010009E0F5818383018201860B0
:103BD000186018601860186018601830383078184D
:103BE000980718001800180018007E000000000058
:103BF00000000000000000000000000000000000C5
:103C0000000000000000C023303C183818300C3091
:103C10000C300C300C300C300C3008301838303C84
:103C2000E033003000300030003000FC00000000C5
:103C30000000000000000000000000000000000084
:103C40000000000060007E3C60666061E000E00013
:103C50006000600060006000600060006000600064
:103C6000FE0700000000000000000000000000004F
:103C70000000000000000000000000000000000044
:103C8000000000000000E02730381830182018002D
:103C90007000E003800F001C043004300C301C184E
:103CA000EC0F000000000000000000000000000019
:103CB0000000000000000000000000008000800004
:103CC0008000C000E000FC1FC000C000C000C000B9
:103CD000C000C000C000C000C000C020C0208011D3
:103CE000000F0000000000000000000000000000C5
:103CF00000000000000000000000000000000000C4
:103D00000000000010201E3C183018301830183009
:103D1000183018301830183018301830183830F47F
:103D2000E0130000000000000000000000000000A0
:103D30000000000000000000000000000000000083
:103D40000000000000007E3C1818180838083004F5
:103D50003004700260026002E001C001C001C000D6
:103D600080000000000000000000000000000000D3
:103D70000000000000000000000000000000000043
:103D8000000000000000DFF78E630C238C238C23DF
:103D90009813981358165816700E700E700E200453
:103DA00020040000000000000000000000000000EF
:103DB0000000000000000000000000000000000003
:103DC000000000000000FC3E70087004E004C00227
:103DD000C0018003800340076006200C100C1818F7
:103DE0003E7E000000000000000000000000000017
:103DF00000000000000000000000000000000000C3
:103E00000000000000007E7C1818180830083008F8
:103E1000300460046004C002C002C002800180015E
:103E200080018000800080004C003C000000000009
:103E30000000000000000000000000000000000082
:103E4000000000000000FC1F0C0C040E0406000320
:103E500080038001C000E0007020302038301C1842
:103E6000FC1F000000000000000000000000000037
:103E700000000030000800040004000400040004F6
:103E80000004000400040004000400028001000299
:103E90000004000400040004000400040004000402
:103EA00000040004000400080030000000010001CC
:103EB00000010001000100010001000100010001FA
:103EC00000010001000100010001000100010001EA
:103ED00000010001000100010001000100010001DA
:103EE00000010001000100010001000100000000CC
:103EF00000000C0010002000200020002000200006
:103F00002000200020002000200040008001400010
:103F100020002000200020002000200020002000A1
:103F200020002000200010000C00000000003800DD
:103F3000C400864002610022001C00000000000056
:103F40000000000000000000000000000000000071
:103F50000000000000000000000000000000000061
:103F60000000000000000000000000008C3F00087E
:103F7000000000200C000000A80C0008983F00087A
:103F80000C00002064080000B80C000800000000CD
:083F9000000000000000000029
:0400000508000131BD
:00000001FF
