:020000040800F2
:10000000780400204901000851010008530100084C
:1000100055010008570100085901000800000000C0
:100020000000000000000000000000005B0100086C
:100030005D010008000000005F010008090A0008D7
:100040006301000863010008630100086301000800
:1000500063010008630100086301000863010008F0
:1000600063010008630100086301000863010008E0
:1000700063010008630100085508000881080008B2
:1000800063010008630100086301000863010008C0
:1000900063010008630100086301000863010008B0
:1000A000630100088D0A000863010008630100086D
:1000B0006301000863010008630100086301000890
:1000C0006301000863010008630100086301000880
:1000D00063010008650B0008630100086301000864
:1000E000FD080008630100086301000863010008BF
:1000F0006301000863010008630100086301000850
:10010000630100086301000863010008630100083F
:1001100063010008630100083D0B0008630100084B
:10012000630100086301000863010008630100081F
:10013000DFF810D000F0A4FA004800470D150008C1
:10014000AFF3008078040020064880470648004747
:10015000FEE7FEE7FEE7FEE7FEE7FEE7FEE7FEE777
:10016000FEE7FEE72D0A0008310100082DE9FE4FE9
:10017000804681EA0300C00F0C46009021F0004148
:1001800023F00045B8EB0200A94105D240462146C4
:1001900090461C460B46024623F00040104347D0D1
:1001A000270DC7F30A00C3F30A510290401A0190C9
:1001B00040286BDAC3F3130040F4801B009892468A
:1001C00020B10023D2EB030A63EB0B0B01985946D5
:1001D000C0F14002504600F0A5F906460D465046D3
:1001E0005946019A00F0ADF910EB08006141002476
:1001F00087EA115284EAE7731A4340D0009A62B347
:10020000019A012A4FEA075215DC001B61EB02013B
:100210004FF0004202EA0752CDE90042001C41F5CE
:10022000801132462B4600F0ADF903B0BDE8F08FE7
:1002300040462146F9E7001B61EB0201001C41F535
:10024000801300185B412018A2F5001747EB03014B
:1002500040EAD570B6196D4111E06D084FEA3606D7
:1002600045EAC0754FEA0752001B61EB0201001C12
:1002700041F5801149084FEA3000001951413246DA
:100280002B4603B0BDE8F04F00F06DB90098012295
:1002900040000023D0EB020263EBE073009821469C
:1002A0004FEAE074B8EB000061EB0401E9E783F08A
:1002B00000435BE781F0004158E72DE9FE4F81EAFA
:1002C000030404F0004421F0004100944FF0000BBF
:1002D00023F0004350EA01045ED052EA03045BD0ED
:1002E000C3F30A54C1F30A552C44A4F2F334019425
:1002F000A0FB0254C1F3130141F48011C3F31303B3
:1003000043F4801301FB024400FB034E840A970A66
:1003100044EA815447EA8357A4FB076802958D0A93
:1003200005FB07854FEA932C04FB0C542705029D1F
:100330004FEA065847EA1637B5EB08056EEB070C8F
:10034000870E920E47EA811742EA8312A7FB020149
:10035000B6EB0B0164EB00042B0D43EA0C335E1883
:1003600044EB1C50DA465146E7FB0201C5F3130487
:100370004FEA0B3343EA14534FEA0432019C43EA39
:100380000603A4F10C040294009CCDE900B400F033
:10039000F9F803B0BDE8F08F00200146F9E72DE938
:1003A000F04D81EA030404F0004B21F000451446AF
:1003B0004FF0000A23F0004150EA050220D054EA31
:1003C00001021DD0C5F30A570246C5F31303C1F35A
:1003D0001300C1F30A5640F4801543F48013A7EBD1
:1003E0000608101BD64608F2FD3873EB050002D351
:1003F00008F1010801E092185B41B8F1000F03DA3F
:1004000000200146BDE8F08D00204FF48011064623
:1004100084460EE0171B73EB050705D3121B63EB35
:10042000050306434CEA010C49084FEA30009218D4
:100430005B4150EA0107EDD152EA030012D082EA93
:10044000040083EA0501084305D0101BAB4106D226
:100450000122002306E000224FF0004302E06FF08B
:10046000010253101AEB06004CEB085110EB0A0086
:1004700041EB0B01BDE8F04D00F075B80EB540F250
:10048000334102910021CDE900110A460B4600F0EC
:1004900079F803B000BD30B50B460146002020229C
:1004A000012409E021FA02F59D4205D303FA02F581
:1004B000491B04FA02F52844151EA2F10102F1DCE1
:1004C00030BD2DE9F05F0546002092469B468846E8
:1004D0000646814640241BE02846414647462246C0
:1004E00000F0E0F853465A46C01A914110D3114625
:1004F0001846224600F016F82D1A67EB01084F4601
:1005000022460120002100F00DF817EB00094E41B2
:10051000201EA4F10104DFDC484631462A4643464A
:10052000BDE8F09F202A04DB203A00FA02F1002007
:1005300070479140C2F1200320FA03F31943904021
:100540007047202A06DBCB17203A41FA02F043EA33
:10055000E07306E041FA02F3D040C2F1200291407C
:1005600008431946704710B5141E73F1000408DAE9
:10057000401C41F1000192185B411A4301D120F067
:10058000010010BD2DE9F04D92469B4611B1B1FA24
:1005900081F202E0B0FA80F220329046FFF7C2FF0B
:1005A00004460F4640EA0A0041EA0B0153465A4608
:1005B000084313D0114653EA010019D0C8F1400294
:1005C000504600F06FF805460E46504659464246E2
:1005D000FFF7A8FF084305D0012004E02046394674
:1005E000BDE8F08D0020054346EAE0762C43374312
:1005F0000A986305E40AA0EB08000022FD0A44EA19
:1006000047540A3002D500200146E9E701051019D8
:100610006941DDE9084500196941BDE8F04DA2E7EF
:10062000C1F30A52C1F3130140F2FF3341F48011C8
:100630009A4202DA00200146704740F233439A4260
:10064000A2F2334202DC524200F02CB8FFF76ABF3C
:1006500030B5041E71F1000404DB4FF00044404249
:1006600064EB0101141E73F1000405DB1C464FF01E
:100670000043524263EB0403994208BF904230BDED
:10068000064C074D06E0E06840F0010394E80700DF
:1006900098471034AC42F6D3FFF74EFD881500089A
:1006A000A8150008202A04DB203A21FA02F00021D4
:1006B000704721FA02F3D040C2F120029140084372
:1006C000194670471848816941F400718161416899
:1006D00021F440414160416841F4004141601348C8
:1006E000016841F480710160001D016821F400611E
:1006F0000160016841F002010160011D0A6822F0F9
:1007000007020A600A6842F002020A60016841F4C6
:1007100080110160016841F460210160016841F4C9
:100720008071016070470000001002400424014005
:1007300010B5FFF7C7FF17480178491CC9B201700F
:100740001548826942F0100282611448026822F45E
:1007500040620260026822F440720260104803683E
:100760004A1E02EB82021F249440A34303600368E5
:100770000C2494402343036009480838026822F49B
:10078000700202600268074B03EB01510A430260EA
:1007900010BD00002C00002000100240001001409D
:1007A000342401400000F0FF0A48016841F00101D3
:1007B0000160016841F00401016001684907FCD44F
:1007C000016841F480010160024808380168890726
:1007D000FCD57047082401401548416941F00101EA
:1007E00041611448816821F480418160816821F46D
:1007F00000618160816841F480618160816821F4D9
:1008000000718160816841F480718160816821F0AC
:1008100040018160816841F080018160816841F020
:1008200020018160816821F0100181607047000023
:100830000010024000000240054A044B1361506161
:10084000D160906840F00100906070474C240140F6
:100850000000024010B5084C206880040BD5606889
:1008600040F4005060600548006800B18047606C4B
:1008700020F00100606410BD000002401C00002058
:1008800006480168890308D5416841F40031416098
:10089000034AD2E902015268104770470000024043
:1008A0001C00002000B502464FF47A7302E018469F
:1008B00000F004F8521E92B2F9D200BD00EBC00065
:1008C000C1004FF0E020416100218161016941F0E8
:1008D00004010161016921F002010161016941F036
:1008E000010101610169C90302D40169C907F9D194
:1008F000016921F00101016170470000094810B54C
:10090000016849050DD5011501606420FFF7CAFF94
:1009100005480068400504D5BDE81040012000F0FE
:1009200015B810BD14040140081C014002490A68B2
:1009300002430A60704700000C08014002490A683F
:1009400082430A60704700000C08014003490968AF
:10095000014201D1FFF7EABFFFF7F0BF0C080140E9
:100960000CB50021264801910091026842F48032C2
:1009700002604FF4A063026802F400320092019A10
:10098000521C0192009A12B9019A9A42F3D102685C
:10099000920333D5012100911A490A6842F01002EE
:1009A0000A600A6822F007020A600A6842F002023E
:1009B0000A604168416041684160416841F480617A
:1009C0004160416821F47C114160416841F4E811C3
:1009D0004160016841F08071016001688901FCD5C6
:1009E000416821F003014160416841F0020141602A
:1009F0004168C1F381010229FAD10CBD00910CBDFF
:100A0000001002400020024010B5074CA068401CB6
:100A1000A060B0F57A7F05D1616809B12088884768
:100A20000020A06010BD0000080000200F4810B595
:100A3000016841F00101016041680D4A11404160C7
:100A400001680C4A11400160016821F480210160B5
:100A5000416821F4FE0141604FF41F018160FFF7FE
:100A60007FFF05494FF00060086010BD0010024094
:100A70000000FFF8FFFFF6FE08ED00E002480188E5
:100A800021F0010101807047002C014003480188DA
:100A900021F001010180FFF7F1BF0000102C01409F
:100AA0001F48C16941F00801C161816941F0040139
:100AB00081611C48016841F0B0010160016821F0CA
:100AC00040010160184941F61F4008806320091D5C
:100AD00008801549322010310880134810380188E9
:100AE00021F440710180018841F4C04101800188F6
:100AF00021F4805101800C480838018821F0200140
:100B00000180094928390A8822F010020A800A88DF
:100B100022F008020A80018841F01001018070472C
:100B20000010024000080140280C004002480188E3
:100B300041F0010101807047000C00400748018A24
:100B4000C90709D0018A21F00101018204484168E6
:100B5000002901D0008808477047000000100040BD
:100B6000140000200C4810B501880C4C8B0600F1D5
:100B70000402217805D51088094A5054491C217077
:100B800010BD0088C006FBD5108862680AB1044811
:100B900090470020207010BD003801400000002068
:100BA000340000201B48816941F4804181618169E2
:100BB00041F0040181611848016841F0B001016011
:100BC000016821F040010160016821F400710160B9
:100BD000016841F480610160016821F440710160A5
:100BE0000E48018842F20C0211430180018821F471
:100BF00080510180018821F480610180001D0188FD
:100C000021F440510180054940F27120091F0880FC
:100C10007047000000100240040801400C380140F9
:100C200003490A881206FCD50149091D088070474E
:100C3000003801400FB4054B10B503A9044A0298CF
:100C400000F0DAF810BC5DF814FB0000FF14000897
:100C50003000002002E008C8121F08C1002AFAD1A3
:100C600070477047002001E001C1121F002AFBD12C
:100C7000704700002DE9FF5F82B00021DDE90430FC
:100C8000020DDDF840B0034318D044F61050A2F234
:100C9000FF3242431514119801281FD0A5EB0B0019
:100CA000401C5FEA000A4FF000064E4FDFF8389113
:100CB000B046504615D5CAF1000413E0119801243E
:100CC0004AA3012801D16FEA0B010298119AC0E9E9
:100CD0000031C0E9024206B0BDE8F09FCBF1000050
:100CE000DFE704460021404A491842EB0450CDE9B1
:100CF000001012E0E00707D032463B464046494626
:100D0000FFF7DBFA8046894632463B4610461946D5
:100D1000FFF7D3FA06460F466410002CEAD1DDE94E
:100D20000401DDE90023BAF1000F06DAFFF7C5FA86
:100D300042464B46FFF7C1FA05E0FFF730FB42465B
:100D40004B46FFF72CFB04460E460022284BFFF7CC
:100D50007FFC03D84FF0FF30014607E00022254B0F
:100D600020463146FFF702FAFFF75AFC102409E04B
:100D7000002C0ADB0A220023FFF7A3FB039B30327F
:100D80001A55641E50EA0102F2D1641C039AC4F1A0
:100D900011031444119A012A03D0012208430DD1F2
:100DA0000AE0084304D000204FF0110B119072E7C5
:100DB000A3EB0B056D1E0DE05B4504DD4FF000025B
:100DC00005F1010504E003DA4FF00002A5F1010589
:100DD000002AECD002981199C0E90231C0E900451F
:100DE00079E70000000014400000F03F30000000F0
:100DF0000000F0430000E03F2DE9FF4F95B09A4618
:100E0000884606460025EEE1252877D100242746AE
:100E1000F94A0121039400E0044316F8013F203B06
:100E200001FA03F01042F7D130782A2811D06FF080
:100E30002F033078A0F13002092A16D8039A44F023
:100E4000020402EB820203EB42021044761C039080
:100E5000EFE758F8042B0392002A03DA504244F4D7
:100E60000054039044F00204761C30782E2816D1EA
:100E700016F8010F44F004042A280DD06FF02F0259
:100E80003078A0F13003092B09D807EB870302EB78
:100E90004303C718761CF3E758F8047B761C3078B8
:100EA0006C280FD006DC4C2817D068280DD06A2893
:100EB00014D104E0742810D07A280FD10DE044F446
:100EC00000140AE044F4801401E044F44014727801
:100ED000824202D104F58014761C761C3078662894
:100EE0000BD013DC582877D009DC002875D04528B2
:100EF000F6D04628F4D047281AD193E118E06328A9
:100F000035D0642879D0652812D18BE1702873D050
:100F100008DC6728F1D069286FD06E280DD06F28C3
:100F200006D1ACE073282CD0752874D0782853D023
:100F30005246179990476D1C54E1C4F302500228A1
:100F400009D003280DD0D8F8001004280DD00D606A
:100F500008F1040846E1D8F80010EA17C1E9005288
:100F6000F6E7D8F800100D80F2E70D70F0E718F8FA
:100F7000041B8DF8001000208DF80100EB460120C5
:100F800003E058F804BB4FF0FF3061074FF0000159
:100F900002D40DE009F101018946B9420FDA814519
:100FA000F8DB1BF809100029F4D108E009F1010170
:100FB00089468142FADB1BF809100029F6D1039813
:100FC0005346A0EB090721463846179A00F080FAED
:100FD000284400EB090507E044E008E10DE01BF8B8
:100FE000010B524617999047B9F10109F7D25346C0
:100FF00021463846179AF2E039E00A21C4F302523A
:101000004FF0000B0091022A06D058F8040BC117CC
:10101000032A09D00AE023E008F1070020F00702C4
:10102000F2E80201904605E000B2C117042A01D19E
:1010300040B2C117002906DA0A460021404261EB9E
:1010400002012D2202E0220504D52B228DF8042076
:10105000012203E0E20701D02022F7E7914657E0A2
:101060000A2100E010214FF0000B00910BE010214D
:101070004FF0000B44F004040827009103E008201F
:101080004FF0000B0090C4F30252022A05D058F82A
:10109000040B0021032A08D008E008F1070020F023
:1010A0000702F2E80201904603E080B2042A00D170
:1010B000C0B24FF0000922072AD53278702A07D033
:1010C000DDF800C08CF0100C5CEA0B0C05D00EE0D3
:1010D00040228DF80420012208E050EA010306D0E6
:1010E00030238DF804308DF8052002229146009BB4
:1010F00083F0080353EA0B030AD150EA010201D13D
:10110000620705D530228DF804204FF001097F1EBB
:101110003278582A04D039A20C920CAA02920BE021
:101120003BA2F9E75B46009AFFF7CBF90C9B9B5C6F
:10113000029A521E0292137050EA0102F2D10298F2
:1011400004A9081A00F1200B600702D524F48034AA
:1011500000E001275F4502DDA7EB0B0000E0002067
:1011600000EB0B01009003984944401A0390E00300
:1011700006D453462146179A039800F0A9F905446E
:10118000002706E001A85246C05D179990476D1CE4
:101190007F1C4F45F6DBE0030CD553462146179ADA
:1011A000039800F095F9054404E030205246179961
:1011B00090476D1C0099481E00900029F5DC08E05E
:1011C0000298029952460078491C0291179990475B
:1011D0006D1CBBF10001ABF1010BF1DC5BE100F038
:1011E00065F90544761C307800287FF40DAE19B0FF
:1011F0002846BDE8F08F0000092801003031323365
:101200003435363738396162636465660000000042
:10121000303132333435363738394142434445462C
:1012200000000000600700D4062708F1070020F046
:101230000700F0E80223804603F0004C5FEA0C0050
:1012400001D097A009E0200501D596A005E0E007B0
:1012500001D095A001E0AFF24C001390307823F05C
:10126000004365280CD006DC452809D046281DD04F
:1012700047287FD13BE0662818D067287AD136E02E
:101280000021112F01DB112000E0781CCDE90001C5
:1012900004A90CA8FFF7EEFCDDE90D010C9A4FF054
:1012A000000B07F10109109200914EE04FF0004051
:1012B0000097CDE9011004A90CA8FFF7DBFCDDE9DC
:1012C0000D020C9B0F994FF0000B9146109300926A
:1012D00011B9791C00EB0109B7EB090003D4C0F187
:1012E000FF3B07F10109A9EB0700019042E0012F44
:1012F00000DA01270021112F01DD112000E038461E
:10130000CDE9000104A90CA8FFF7B4FCDDE90D014B
:101310000C9A00914FF0000BB946109221070FD4A0
:10132000009A4A4503DA914601E0A9F10109B9F1B1
:10133000010F05DD109AA9F10101515C3029F4D0AB
:10134000B84202DA10F1040F03DA0121CDE90110ED
:1013500010E0002803DC8344A9EB000102E0411CFB
:10136000494500DD8946A0EB0B00401C01904FF081
:1013700000400290200705D40198484502DB4FF059
:10138000FF30019000208DF84B0002980DF14B07C3
:10139000B0F1004F25D002200C902B200D90029828
:1013A00000280CDA404202902D200D9007E00A211F
:1013B0000298FFF770F83031029007F8011D0C9980
:1013C000481E0C900029F2DC02980028EFD1791E0B
:1013D0000D980870307800F0200040F0450007F8C4
:1013E000020D11A8C01BC01D02901398007800B117
:1013F000012000EB0901019801EBE0710298014422
:101400000398401A401E0390E00306D45346214639
:10141000179A039800F05CF805441398007818B107
:101420005246179990476D1CE00323D55346214639
:10143000179A039800F04CF805441BE0BBF1000F2D
:1014400007DB0098584504DD1098179910F80B0039
:1014500001E0179930205246904701980BF1010B9B
:10146000401E05F10105019004D12E205246179926
:1014700090476D1CB9F10001A9F10109DEDC05E01E
:1014800017F8010B5246179990476D1C0299481E98
:1014900002900029F4DC53462146179A03989EE6F1
:1014A0002D0000002B000000200000002DE9F0417D
:1014B000044600251E461746880404D405E0394634
:1014C0002020B0476D1C641EF9D52846BDE8F08188
:1014D0002DE9F041044600251E469046C80301D57B
:1014E000302700E02027880404D505E0414638462F
:1014F000B0476D1C641EF9D52846BDE8F08100B5E3
:101500000346C0B2FFF78CFB184600BD08B50020AB
:10151000ADF80000FFF746FBFFF7C2FAFFF75CF9F2
:10152000FFF706F901216846FFF786F9FFF7FEFA93
:10153000FFF73AF90D4D0E4E4FF066344FF47A77BF
:10154000BDF80000FEF79AFF22462B46FEF7B5FED7
:1015500000223346FEF723FF02460B4605A0FFF7A5
:1015600069FB3846FFF79EF9EAE7000066660A4025
:1015700000FEAF40566F6C7465616765203D2025A5
:101580002E326C662C0A0000A8150008000000200E
:1015900034000000540C0008DC1500083400002062
:1015A00044040000640C000800000000000000007B
:1015B000000000000000000000000000000000002B
:1015C000000000000000000000000000000000001B
:0C15D0000000000000000000000000000F
:0400000508000131BD
:00000001FF
