:020000040800F2
:10000000F0040020490100086D1F0008531D00087E
:10001000691F0008EB060008E12600080000000048
:100020000000000000000000000000009D1F00080C
:10003000EF06000800000000711F00089F1F000865
:100040006301000863010008630100086301000800
:1000500063010008630100086301000863010008F0
:1000600063010008630100086301000863010008E0
:1000700063010008630100086301000863010008D0
:1000800063010008630100086301000863010008C0
:1000900063010008630100086301000863010008B0
:1000A00063010008630100086301000863010008A0
:1000B0006301000863010008630100086301000890
:1000C0006301000863010008630100086301000880
:1000D0006301000863010008630100086301000870
:1000E0006301000863010008630100086301000860
:1000F0006301000863010008630100086301000850
:10010000630100086301000863010008630100083F
:10011000630100086301000863010008630100082F
:10012000630100086301000863010008630100081F
:10013000DFF810D000F0A6FA0048004705300008AC
:10014000AFF30080F00400200648804706480047CF
:10015000FEE7FEE7FEE7FEE7FEE7FEE7FEE7FEE777
:10016000FEE7FEE70D20000831010008202A04DB2D
:10017000203A21FA02F00021704721FA02F3D04020
:10018000C2F120029140084319467047D2B201E003
:1001900000F8012B491EFBD270470022F6E710B58C
:1001A00013460A4604461946FFF7F0FF204610BDE5
:1001B0002DE9FE4F81EA030404F0004421F00041E0
:1001C00000944FF0000B23F0004350EA01045ED08E
:1001D00052EA03045BD0C3F30A54C1F30A552C441A
:1001E000A4F2F3340194A0FB0254C1F3130141F4CF
:1001F0008011C3F3130343F4801301FB024400FB9B
:10020000034E840A970A44EA815447EA8357A4FBC1
:10021000076802958D0A05FB07854FEA932C04FBBE
:100220000C542705029D4FEA065847EA1637B5EBEE
:1002300008056EEB070C870E920E47EA811742EA1B
:100240008312A7FB0201B6EB0B0164EB00042B0D3C
:1002500043EA0C335E1844EB1C50DA465146E7FB88
:100260000201C5F313044FEA0B3343EA14534FEA78
:100270000432019C43EA0603A4F10C040294009C9E
:10028000CDE900B400F0D8F803B0BDE8F08F00204D
:100290000146F9E72DE9F04D81EA030404F0004B33
:1002A00021F0004514464FF0000A23F0004150EAC7
:1002B000050220D054EA01021DD0C5F30A570246B8
:1002C000C5F31303C1F31300C1F30A5640F48015BC
:1002D00043F48013A7EB0608101BD64608F2FD383E
:1002E00073EB050002D308F1010801E092185B41AD
:1002F000B8F1000F03DA00200146BDE8F08D0020C0
:100300004FF48011064684460EE0171B73EB050779
:1003100005D3121B63EB050306434CEA010C4908A5
:100320004FEA300092185B4150EA0107EDD152EAE2
:10033000030012D082EA040083EA0501084305D0D5
:10034000101BAB4106D20122002306E000224FF031
:10035000004302E06FF0010253101AEB06004CEB71
:10036000085110EB0A0041EB0B01BDE8F04D00F025
:1003700054B80EB540F2334102910021CDE900118D
:100380000A460B4600F058F803B000BD30B50B46E6
:10039000014600202022012409E021FA02F59D42B5
:1003A00005D303FA02F5491B04FA02F52844151E89
:1003B000A2F10102F1DC30BD2DE9F05F054600201D
:1003C00092469B4688460646814640241BE02846C6
:1003D000414647462246FFF7C9FE53465A46C01AD1
:1003E000914110D311461846224600F05DF92D1AAE
:1003F00067EB01084F4622460120002100F054F926
:1004000017EB00094E41201EA4F10104DFDC484631
:1004100031462A464346BDE8F09F10B5141E73F1DD
:10042000000408DA401C41F1000192185B411A43B4
:1004300001D120F0010010BD2DE9F04D92469B4600
:1004400011B1B1FA81F202E0B0FA80F220329046A6
:1004500000F02AF904460F4640EA0A0041EA0B017F
:1004600053465A46084313D0114653EA010019D0A7
:10047000C8F140025046FFF779FE05460E46504649
:100480005946424600F010F9084305D0012004E027
:1004900020463946BDE8F08D0020054346EAE07667
:1004A0002C4337430A986305E40AA0EB08000022B6
:1004B000FD0A44EA47540A3002D500200146E9E724
:1004C000010510196941DDE9084500196941BDE8D8
:1004D000F04DA2E72DE9FE4F804681EA0300C00FF0
:1004E0000C46009021F0004123F00045B8EB0200DB
:1004F000A94105D24046214690461C460B4602467D
:1005000023F00040104347D0270DC7F30A00C3F380
:100510000A510290401A019040286BDAC3F313008D
:1005200040F4801B0098924620B10023D2EB030ACE
:1005300063EB0B0B01985946C0F14002504600F0A6
:10054000B3F806460D4650465946019A00F0BBF8EE
:1005500010EB08006141002487EA115284EAE77336
:100560001A4340D0009A62B3019A012A4FEA075217
:1005700015DC001B61EB02014FF0004202EA07525A
:10058000CDE90042001C41F5801132462B46FFF7B1
:1005900053FF03B0BDE8F08F40462146F9E7001B4A
:1005A00061EB0201001C41F5801300185B4120182B
:1005B000A2F5001747EB030140EAD570B6196D416B
:1005C00011E06D084FEA360645EAC0754FEA07525A
:1005D000001B61EB0201001C41F5801149084FEA44
:1005E00030000019514132462B4603B0BDE8F04FB0
:1005F000FFF713BF0098012240000023D0EB020256
:1006000063EBE073009821464FEAE074B8EB00001A
:1006100061EB0401E9E783F000435BE781F000410F
:1006200058E7C1F30A52C1F3130140F2FF3341F41A
:1006300080119A4202DA00200146704740F23343AB
:100640009A42A2F2334202DC5242FFF78FBD00F021
:100650002BB8000030B5041E71F1000404DB4FF02C
:100660000044404264EB0101141E73F1000405DBF9
:100670001C464FF00043524263EB0403994208BF0B
:10068000904230BD064C074D06E0E06840F00103A3
:1006900094E8070098471034AC42F6D3FFF74CFDBE
:1006A000C0300008E0300008202A04DB203A00FABD
:1006B00002F1002070479140C2F1200320FA03F3B9
:1006C000194390407047202A06DBCB17203A41FAA5
:1006D00002F043EAE07306E041FA02F3D040C2F1CF
:1006E0002002914008431946704700BFFEE770475B
:1006F00070B506490968496B481CFFF73AFE044685
:100700000022034BFFF7C6FD70BD0000140000205F
:1007100000408F402DE9F0470C490968496B481C9F
:10072000FFF727FE04460D4608490968896B481CF7
:10073000FFF71FFE06460022054BFFF739FD8046F6
:1007400022462B46FFF7A6FDBDE8F08714000020E7
:100750000000F03F70B507490968496B481CFFF776
:1007600008FE044622460B4600200349FFF792FD8F
:1007700070BD00001400002080842E4172B600BFBE
:10078000FEE7000070B5044600F0B0F906462546C5
:10079000681C10B104480078054400BF00F0A6F9B9
:1007A000801BA842FAD370BD080000202DE9F8474D
:1007B000024600239C467BE14FF0010808FA03F44F
:1007C000D1F8008008EA0400A0427DD1DFF8F4A24D
:1007D000D1F80480A8EB0A09D0453AD014DCB8F16E
:1007E000030F50D009DCB8F1000F31D0B8F1010F80
:1007F0001CD0B8F1020F49D120E0B8F1110F18D088
:10080000B8F1120F42D11EE0B9F5881F25D006DCE1
:10081000B9F5803F20D0B9F5801F37D11AE0B9F57E
:10082000001F18D0B9F5041F30D117E0D1F80CC063
:100830002DE0D1F80C8008F1040C28E0D1F80C80F0
:1008400008F1080C23E0D1F80C8008F10C0C1EE034
:1008500000BF00BF00BF00BF00BF00BFD1F80880CD
:10086000B8F1000F02D14FF0040C0BE0D1F8088072
:10087000B8F1010F03D14FF0080C146102E04FF002
:10088000080C546103E04FF0000C00E000BF00BF13
:10089000FF2801D8904601E002F104084646FF28EF
:1008A00002D84FEA830803E0A3F108084FEA88085A
:1008B0004746D6F800804FF00F0909FA07F928EAF1
:1008C00009080CFA07F900E07AE048EA0908C6F8D6
:1008D0000080D1F8048008F08058B8F1805F6FD1B3
:1008E00000BFDFF8E481D8F8188048F00108DFF88D
:1008F000D891C9F81880C846D8F8188008F00108BF
:10090000CDF8008000BF00BF4FEAB9384FEA930925
:1009100058F829504FEA83784FEA18794FF00F08BA
:1009200008FA09F825EA0805DFF8A081424502D156
:100930004FF0000824E0DFF89881424502D14FF0E3
:1009400001081DE0DFF88C81424502D14FF002081A
:1009500016E0DFF88481424502D14FF003080FE032
:10096000DFF87881424502D14FF0040808E0DFF853
:100970007081424502D14FF0050801E04FF00608B2
:100980004FEA83794FEA197908FA09F848EA050528
:10099000DFF850814FEA930948F82950D1F80480D4
:1009A00008F48018B8F5801F0BD1DFF83C81D8F827
:1009B000008048EA0008DFF83091C9F800800AE0BA
:1009C00075E0DFF82481D8F8008028EA0008DFF815
:1009D0001891C9F80080D1F8048008F40018B8F51F
:1009E000001F0ED1DFF8008108F10408D8F800805C
:1009F00048EA0008DFF8F09009F10409C9F800801E
:100A00000DE0DFF8E48008F10408D8F8008028EA57
:100A10000008DFF8D49009F10409C9F80080D1F882
:100A2000048008F40038B8F5003F0ED1DFF8B88034
:100A3000A8F10408D8F8008048EA0008DFF8A89078
:100A4000A9F10409C9F800800DE0DFF89C80A8F145
:100A50000408D8F8008028EA0008DFF88C90A9F193
:100A60000409C9F80080D1F8048008F48038B8F58A
:100A7000803F0ED1DFF87080A8F10808D8F8008018
:100A800048EA0008DFF86090A9F10809C9F8008079
:100A90000DE0DFF85480A8F10808D8F8008028EAB3
:100AA0000008DFF84490A9F10809C9F800805B1C30
:100AB000D1F8008028FA03F8B8F1000F7FF47CAE7B
:100AC000BDE8F88700001110001002400008014046
:100AD000000C0140001001400014014000180140CA
:100AE000001C014008000140080401400148006862
:100AF000704700000000002003480068034909789F
:100B000008440149086070470000002008000020E8
:100B100010B50848006840F010000649086003203E
:100B200000F098F80F2000F007F800F02BF80020F4
:100B300010BD00000020024070B504460E48007849
:100B40004FF47A71B1FBF0F00C490968B1FBF0F594
:100B5000284600F0E9FB08B1012070BD102C07D237
:100B600000222146501E00F037F80548046001E0DD
:100B70000120F2E70020F0E7080000200C00002030
:100B80000400002008B500BF1148806940F0010052
:100B90000F4988610846806900F00100009000BF9D
:100BA00000BF00BF0846C06940F08050C8610846D9
:100BB000C06900F08050009000BF00BF00BF054931
:100BC000486820F0E06040F00070486000BF08BD59
:100BD00000100240000001402DE9F05F80460D4604
:100BE0001646002701F08EFD074639462A46334651
:100BF00001F00700C0F1070ABAF1040F02D94FF063
:100C0000040A01E0C0F1070AD14600F1040ABAF172
:100C1000070F02D24FF0000A01E0A0F1030AD44608
:100C20004FF0010A0AFA09FAAAF1010A0AEA020ACD
:100C30000AFA0CFA4FF0010B0BFA0CFBABF1010BAB
:100C40000BEA030B4AEA0B042146404601F062FD21
:100C5000BDE8F09F00BF00F00702064B19684FF691
:100C6000FF031940044B0B4343EA0221014B196077
:100C700000BF70470CED00E00000FA0570B50446B7
:100C80000D460CB9012070BD5A48006800F00700FD
:100C9000A8420ED25748006820F007002843554963
:100CA00008600846006800F00700A84201D0012053
:100CB000E9E7207800F0020002281DD1207800F03A
:100CC0000400042805D14C48406840F4E0604A49DB
:100CD0004860207800F00800082805D146484068A0
:100CE00040F46050444948604348406820F0F000B8
:100CF000A168084340494860207800F0010078B3BB
:100D00006068012806D13C48006800F4003090B9C2
:100D10000120B8E76068022806D13748006800F073
:100D2000007040B90120AEE73348006800F00200CF
:100D300008B90120A7E73048406820F00300616847
:100D400008432D494860FFF7D1FE064609E0FFF74A
:100D5000CDFE801B41F28831884202D9032092E700
:100D600007E02548406800F00C006168B0EB810F97
:100D7000EDD12048006800F00700A8420ED91D48B8
:100D8000006820F0070028431A49086008460068F8
:100D900000F00700A84201D0012074E7207800F09D
:100DA0000400042807D11448406820F4E060E1689A
:100DB000084311494860207800F00800082808D14D
:100DC0000D48406820F46050216940EAC1000A499A
:100DD000486000F03FF808494968C1F30311074A29
:100DE000515CC8400649086006480068FFF7A4FE49
:100DF000002048E70020024000100240A630000812
:100E00000C0000200400002001480068704700002A
:100E10000C00002000B5FFF7F7FF04494968C1F353
:100E20000221034A515CC84000BD0000001002408E
:100E3000B630000800B5FFF7E7FF04494968C1F381
:100E4000C221034A515CC84000BD000000100240AE
:100E5000B630000870B500210022002400230020D5
:100E6000134D696801F00C05F5B1042D02D0082D71
:100E700019D101E00F4819E00F4DC1F38346AB5D76
:100E800001F4803555B10A4D6D68C5F340450B4EF0
:100E9000725D084D5D43B5FBF2F402E0084D03FBC3
:100EA00005F4204602E000BF024800BF00BF70BD4D
:100EB0000010024000127A0094300008A4300008AC
:100EC00000093D00F8B504460CB90120F8BD2078B2
:100ED00000F00100002878D0F848406800F00C00CD
:100EE00004280CD0F548406800F00C00082811D107
:100EF000F248406800F48030B0F5803F0AD1EF48F6
:100F0000006800F4003000285FD0606800285CD1E1
:100F10000120DBE700BF6068B0F5803F06D1E748FD
:100F2000006840F48030E549086028E0606858B9FE
:100F3000E248006820F48030E04908600846006814
:100F400020F4802008601AE06068B0F5A02F0BD173
:100F5000DA48006840F48020D849086008460068F4
:100F600040F4803008600AE0D448006820F4803003
:100F7000D24908600846006820F48020086000BF5D
:100F8000606888B1FFF7B2FD054606E0FFF7AEFDE9
:100F9000401B642801D9032098E7C848006800F482
:100FA00000300028F2D010E0FFF7A0FD054606E073
:100FB000FFF79CFD401B642801D9032086E7BF484A
:100FC000006800F400300028F2D1207800F0020020
:100FD000022857D1B948406800F00C0050B1B7481A
:100FE000406800F00C00082818D1B448406800F4AC
:100FF000803098B9B148006800F0020020B1206943
:10100000012801D0012061E7AC48006820F0F80019
:10101000616940EAC100A949086033E02069E8B18C
:101020000120A7490860FFF761FD054606E0FFF7CC
:101030005DFD401B022801D9032047E79F48006857
:1010400000F002000028F2D09C48006820F0F80070
:10105000616940EAC1009949086013E0002098499D
:101060000860FFF743FD054606E0FFF73FFD401B24
:10107000022801D9032029E79048006800F0020007
:101080000028F2D1207800F0080008282DD1A069AE
:10109000B8B101208B490860FFF728FD054606E03E
:1010A000FFF724FD401B022801D903200EE78348E7
:1010B000406A00F002000028F2D0012000F05AFF40
:1010C00013E000207F490860FFF710FD054606E0A9
:1010D000FFF70CFD401B022801D90320F6E67748F4
:1010E000406A00F002000028F2D1207800F00400ED
:1010F000042873D100277148C06900F0805070B98E
:1011000000BF6E48C06940F080506C49C861084615
:10111000C06900F08050009000BF00BF01276A48FE
:10112000006800F48070B0B96748006840F48070CF
:1011300065490860FFF7DAFC054606E0FFF7D6FCD4
:10114000401B642801D90320C0E65F48006800F412
:1011500080700028F2D000BFE068012806D157480F
:10116000006A40F001005549086227E0E06858B97C
:101170005248006A20F00100504908620846006A9F
:1011800020F00400086219E0E06805280BD14B4804
:10119000006A40F00400494908620846006A40F0CD
:1011A000010008620AE04548006A20F00100434956
:1011B00008620846006A20F00400086200BFE06888
:1011C000A0B1FFF793FC054609E0FFF78FFC401B39
:1011D00041F28831884202D9032077E622E037487D
:1011E000006A00F002000028EFD012E0FFF77EFC5A
:1011F000054608E0FFF77AFC401B41F2883188423F
:1012000001D9032062E62D48006A00F002000028A0
:10121000F0D1012F05D12948C06920F0805027491D
:10122000C86100BFE069C8B32448406800F00C0002
:10123000082860D0E069022848D1002020490866CB
:10124000FFF754FC054606E0FFF750FC401B022860
:1012500001D903203AE61948006800F00070002820
:10126000F2D1206AB0F5803F07D11448406820F4DD
:101270000030A168084311494860D4E908010843D7
:101280000E49496821F4741108430C494860012053
:101290000B490866FFF72AFC054607E03DE0FFF72B
:1012A00025FC401B022801D903200FE603480068F3
:1012B00000F000700028F2D02FE000000010024083
:1012C0000000424280044242007000400020144965
:1012D0000866FFF70BFC054606E0FFF707FC401B1E
:1012E000022801D90320F1E50E48006800F00070E3
:1012F0000028F2D111E0E069012800D1E6E50948B3
:10130000466806F48031206A814204D106F47011E7
:10131000606A814201D00120D8E50020D6E50000B6
:10132000000042420010024070B504462546681E87
:10133000B0F1807F01D301200FE0681E4FF0E02163
:1013400048610F214FF0FF3001F0E4F900204FF029
:10135000E021886107200861002070BD30B5024699
:101360000B4600BF92F83C00012801D1022030BD9D
:10137000012082F83C0000BF022082F83D00106886
:1013800044681068816824F0700418680443106889
:101390004460144D1068A84213D0134D1068A84241
:1013A0000FD01068B0F1804F0BD0104D1068A842DC
:1013B00007D00F4D1068A84203D00E4D1068A84208
:1013C00005D121F080015868014310688160012037
:1013D00082F83D0000BF002082F83C0000BF00BF43
:1013E000C5E70000002C014000340140000400402B
:1013F00000080040000C004010B504460CB9012064
:1014000010BD94F83D0028B9002084F83C00204627
:1014100000F026F8022084F83D00211D206800F02D
:10142000F7FD012084F8460000BF84F83E0001214A
:101430003F200155402001554120015500BF00BF0C
:10144000012084F8420043200155442001554520E5
:10145000015500BF012084F83D000020D0E70000C6
:1014600010B586B0044600200290039004900590C9
:101470001E492068884224D100BF1D48C06940F041
:1014800004001B49C8610846C06900F004000190CF
:1014900000BF00BF00BF0846806940F008008861B7
:1014A0000846806900F00800019000BF00BF40209E
:1014B000029000200390049002A90E48FFF776F9ED
:1014C00011E00D49206888420DD100BF0848C0696D
:1014D00040F008000649C8610846C06900F00800ED
:1014E000019000BF00BF06B010BD00000008004022
:1014F00000100240000C0140000C00402DE9F041BA
:1015000004460D46002700BF94F83C00012802D194
:101510000220BDE8F081012084F83C0000BF0220D9
:1015200084F83D002068866826F0770626F47F461A
:10153000206886602868502833D00CDC202850D0E2
:1015400004DC00284BD0102851D149E0302849D084
:1015500040284CD139E060282DD0702807D0B0F554
:10156000805F03D0B0F5005F41D10DE041E0D5E9E7
:1015700002136A68206800F0B2FD2068866846F0B1
:1015800077062068866034E0D5E902136A6820682F
:1015900000F0A5FD2068806840F4804021688860E4
:1015A00027E0EA686968206800F0E3FE50212068BF
:1015B00000F0A0FD1DE0EA686968206800F02AFFDD
:1015C0006021206800F096FD13E0EA6869682068F1
:1015D00000F0CFFE4021206800F08CFD09E000BF44
:1015E00000BF00BF2968206800F084FD01E00127EA
:1015F00000BF00BF012084F83D0000BF002084F838
:101600003C0000BF384684E72DE9F04104460D4612
:101610001646002700BF94F83C00012802D10220A2
:10162000BDE8F081012084F83C0000BF96B9EB686A
:10163000D5E90012206800F0AFFE2068806920F034
:101640000C002168886120688069A96808432168C6
:10165000886141E0042E13D1EB68D5E900122068BF
:1016600000F0ECFE2068806920F440602168886109
:1016700020688069A96840EA0120216888612BE020
:10168000082E12D1EB68D5E90012206800F0F3FEB5
:101690002068C06920F00C002168C8612068C0691A
:1016A000A96808432168C86116E00C2E13D1EB68C5
:1016B000D5E90012206800F0FAFE2068C06920F425
:1016C00040602168C8612068C069A96840EA0120BB
:1016D0002168C86100E0012700BF002084F83C00B9
:1016E00000BF38469CE710B504460CB9012010BD78
:1016F00094F83D0028B9002084F83C00204600F012
:1017000025F8022084F83D00211D206800F080FCAF
:10171000012084F8460000BF84F83E0001213F20EC
:101720000155402001554120015500BF00BF012057
:1017300084F84200432001554420015545200155BD
:1017400000BF012084F83D000020D0E77047000072
:101750002DE9F04104460D4615B994F83E000BE022
:10176000042D02D13F20005D06E0082D02D140206B
:10177000005D01E04120005D074615B994F8420084
:101780000BE0042D02D14320005D06E0082D02D1BC
:101790004420005D01E04520005D8046012F02D11C
:1017A000B8F1010F02D00120BDE8F0811DB902207F
:1017B00084F83E000EE0042D03D102213F200155A4
:1017C00008E0082D03D102214020015502E002214A
:1017D000412001551DB9022084F842000EE0042D7D
:1017E00003D102214320015508E0082D03D1022135
:1017F0004420015502E002214520015501222946DD
:10180000206800F05BFC16492068884213D0154917
:10181000206888420FD02068B0F1804F0BD0124969
:101820002068884207D011492068884203D01049B7
:10183000206888420CD12068806800F00706062ED8
:101840000CD02068006840F001002168086005E0C5
:101850002068006840F00100216808600020A3E7CC
:10186000002C01400034014000040040000800400A
:10187000000C004010B586B0044600200290039092
:10188000049005900D492068884215D100BF0C488E
:10189000806940F004000A4988610846806900F0C8
:1018A0000400019000BF00BF022002900390059049
:1018B00002A90448FEF77AFF06B010BD000C0040F4
:1018C00000100240000801402DE9F04104460D4699
:1018D0001646002700BF94F83C00012802D10220E0
:1018E000BDE8F081012084F83C0000BF36B1042E31
:1018F0001BD0082E31D00C2E5ED145E02946206841
:1019000000F002FC2068806940F0080021688861CE
:101910002068806920F0040021688861206880695F
:10192000296908432168886148E02946206800F059
:1019300023FC2068806940F4006021688861206889
:10194000806920F480602168886120688069296945
:1019500040EA01202168886130E02946206800F0D3
:1019600049FC2068C06940F008002168C86120680F
:10197000C06920F004002168C8612068C069296935
:1019800008432168C86119E02946206800F06EFC10
:101990002068C06940F400602168C8612068C0699F
:1019A00020F480602168C8612068C069296940EA24
:1019B00001202168C86101E0012700BF00BF00BF0E
:1019C000002084F83C0000BF384689E710B5044683
:1019D0000CB9012010BD94F83D0028B9002084F80E
:1019E0003C00204600F025F8022084F83D00211D2F
:1019F000206800F00DFB012084F8460000BF84F849
:101A00003E0001213F200155402001554120015554
:101A100000BF00BF012084F842004320015544204C
:101A200001554520015500BF012084F83D000020EC
:101A3000D0E7704770B504460D4615B994F83E00DE
:101A40000BE0042D02D13F20005D06E0082D02D1FD
:101A50004020005D01E04120005D012801D001200F
:101A600070BD1DB9022084F83E000EE0042D03D1A4
:101A700002213F20015508E0082D03D1022140201A
:101A8000015502E00221412001550122294620682A
:101A900000F014FB1F492068884203D01E492068CB
:101AA000884201D1012000E0002028B12068406C6C
:101AB00040F400402168486416492068884213D0E9
:101AC0001549206888420FD02068B0F1804F0BD0B4
:101AD00012492068884207D011492068884203D003
:101AE0001049206888420CD12068806800F0070601
:101AF000062E0CD02068006840F0010021680860C4
:101B000005E02068006840F00100216808600020BE
:101B1000A6E70000002C0140003401400004004012
:101B200000080040000C004070B504460D4600BFA0
:101B300094F83C00012801D1022070BD012084F8F6
:101B40003C0000BF022084F83D002946204600F0FA
:101B5000B7FB48B1012084F83D0000BF002084F8A5
:101B60003C0000BF0120E8E72068C06820F040008A
:101B70002168C8602068C06820F480402168C8607F
:101B8000012084F83D0000BF002084F83C0000BF25
:101B900000BFD2E710B504460CB9012010BDA06902
:101BA00000B100E000BF94F8410028B9002084F89B
:101BB0004000204600F02AF8242084F841002068E4
:101BC000C06820F400502168C860204600F0C4FCC2
:101BD0002068006920F4904021680861206840690D
:101BE00020F02A00216848612068C06840F4005055
:101BF0002168C86000206064202084F8410084F8D7
:101C000042000020606300BFC8E7000010B586B046
:101C10000446002002900390049005901A49206821
:101C200088422ED100BF1948806940F4804017498E
:101C300088610846806900F48040019000BF00BFC1
:101C400000BF0846806940F004008861084680694A
:101C500000F00400019000BF00BF48150290022070
:101C600003900320059002A90948FEF79FFD4FF459
:101C70008060029000200390049002A90448FEF7BF
:101C800095FD06B010BD0000003801400010024074
:101C9000000801402DE9F84F04460E4617469946C4
:101CA0004FF0000A94F84100202850D106B117B92E
:101CB0000120BDE8F88F00206064212084F84100F5
:101CC000FEF714FF8246A784E784A068B0F5805F22
:101CD00004D1206910B90025B04602E035464FF026
:101CE00000081EE05346002280212046CDF80090D7
:101CF00000F0B0FC20B1202084F841000320D8E798
:101D000045B9B8F80000C0F308002168486008F140
:101D1000020803E02878216848606D1CE08C401EB2
:101D2000E084E08C0028DDD153460022402120468B
:101D3000CDF8009000F08EFC20B1202084F8410006
:101D40000320B6E7202084F841000020B1E70220FC
:101D5000AFE700BFFEE7000008B500BF1348806989
:101D600040F01000114988610846806900F01000B9
:101D7000009000BF00BF00BF0846806940F004002B
:101D800088610846806900F00400009000BF00BF31
:101D900000BF0846806940F00800886108468069F5
:101DA00000F00800009000BF00BF08BD0010024016
:101DB00000B58FB000200B900C900D900E90142168
:101DC00006A8FEF7EAF90020049005900090019023
:101DD000029003902B482C4908604720486000215E
:101DE000294881604FF6FF71C16000210161816166
:101DF000FFF702FB08B1FEF7C1FC4FF480500B90D7
:101E00000BA92148FFF77AFB08B1FEF7B7FC1E4883
:101E1000FFF769FC08B1FEF7B1FC042006905020E2
:101E20000790002008900A9006A91748FFF77CFE4B
:101E300008B1FEF7A3FC00200490059004A9124805
:101E4000FFF78CFA08B1FEF799FC00200090012002
:101E50000190002002900390002269460A48FFF793
:101E6000D3FB08B1FEF78AFC022000900190042207
:101E700069460548FFF7C8FB08B1FEF77FFC0FB0C5
:101E800000BD0000000800401400002000B58DB027
:101E9000002009900A900B900C90079008901C214C
:101EA0006846FEF77AF920482049086041F61F404D
:101EB000486000211D4881606321C16000210161EB
:101EC0008161FFF799FA08B1FEF758FC4FF4805092
:101ED000099009A91548FFF711FB08B1FEF74EFC60
:101EE0001248FFF773FD08B1FEF748FC0020079089
:101EF000089007A90D48FFF731FA08B1FEF73EFC3C
:101F00006020009032200190002002900490042272
:101F100069460648FFF7D8FC08B1FEF72FFC0348D6
:101F2000FFF7A8FC0DB000BD000C00405C000020D5
:101F300010B50B480B4908604FF4E13048600021B0
:101F400008488160C16001610C214161002181610B
:101F5000C161FFF71FFE08B1FEF710FC10BD0000C5
:101F600000380140A400002000BFFEE700BFFEE7EC
:101F70007047000008B508490968C9084FF47A722B
:101F8000B1FBF2F14143009100BF00BF00994A1E2E
:101F900000920029F9D108BD0C000020704710B54F
:101FA000FEF7AAFD10BD00B58FB0282105A8FEF7E9
:101FB000F4F814216846FEF7F0F8012005900004BB
:101FC0000690002007900120099002200C90C10388
:101FD0000D914FF4E0110E9105A8FEF773FF08B1C3
:101FE000FEF7CCFB0F200090022001900020029011
:101FF0004FF4806003900020049002216846FEF7B1
:102000003DFE08B1FEF7BAFB0FB000BD70470000FF
:1020100010B50268244B98420ED0244B98420BD046
:10202000B0F1804F08D0224B984205D0214B984206
:1020300002D0214B984203D122F070024B681A4320
:10204000194B98420ED0194B98420BD0B0F1804FEB
:1020500008D0174B984205D0164B984202D0164B29
:10206000984203D122F44072CB681A4322F08003D5
:102070004C6943EA040202608B68C3620B688362A6
:10208000094B984202D0094B984201D10B69036376
:1020900001234361036903F001031BB1036923F0CA
:1020A0000103036110BD0000002C01400034014019
:1020B0000004004000080040000C004030B501F072
:1020C0001F05012404FA05F3046A9C430462046AB0
:1020D00001F01F0502FA05F52C43046230BD30B54E
:1020E0000C46816821F47F4142EA032525432943B8
:1020F000816030BD0A46816821F0700142F007031B
:10210000194381607047000030B5026A056A25F006
:10211000010505624368846924F0700424F0030417
:102120000D682C4322F002028D682A43104DA8420C
:1021300000D103E00F4DA84206D100BF22F00802F3
:10214000CD682A4322F00402094DA84202D0094D6D
:10215000A84207D123F4807323F400734D692B4305
:102160008D692B43436084614D684563026230BDD5
:10217000002C01400034014030B5026A056A25F0A8
:10218000100505624368846924F4E04424F4407433
:102190000D6844EA052422F020028D6842EA051207
:1021A000124DA84200D103E0114DA84207D100BF53
:1021B00022F08002CD6842EA051222F040020B4D67
:1021C000A84202D00A4DA84209D123F4806323F427
:1021D00000634D6943EA85038D6943EA85034360E3
:1021E00084614D688563026230BD0000002C0140AF
:1021F0000034014030B5026A056A25F48075056235
:102200004368C46924F0700424F003040D682C436F
:1022100022F400728D6842EA0522124DA84200D1D4
:1022200003E0114DA84207D100BF22F40062CD683F
:1022300042EA052222F480620A4DA84202D00A4DE9
:10224000A84209D123F4805323F400534D6943EA93
:1022500005138D6943EA05134360C4614D68C56386
:10226000026230BD002C01400034014030B5036AE9
:10227000056A25F4805505624468C26922F4E0428B
:1022800022F440720D6842EA052223F400538D685F
:1022900043EA0533084DA84202D0084DA84204D1B4
:1022A00024F480444D6944EA85144460C2614D6859
:1022B0000564036230BD0000002C01400034014081
:1022C0002DE9F04705460C464FF00009286886685E
:1022D00026F070066068064326F00706206806436D
:1022E00028688660606800F00F0100293BD100116A
:1022F000082838D2DFE800F0333435360B272D04B8
:10230000D4E90313A2682868FFF7E9FE2EE02068ED
:10231000052802D10120BDE8F0872868D0F8208088
:102320002868006A20F00100296808622868876927
:1023300027F0F007206947EA0017286887612868B6
:10234000C0F8208012E02269A168286800F011F826
:102350000CE02269A168286800F05CF806E000BF84
:1023600000BF00BF02E04FF0010900BF00BF4846B8
:10237000D1E730B50B461446026A056A25F001051F
:102380000562816921F0F00141EA041122F00A029C
:102390001A438161026230BD70B50C461546026A6F
:1023A000066A26F0010606628169154EB0420ED01B
:1023B000144EB0420BD0B0F1804F08D0124EB04254
:1023C00005D0124EB04202D0114EB04201D10126CA
:1023D00000E000261EB121F00301294301E041F095
:1023E000010121F0F001F02606EA0316314322F044
:1023F0000A0204F00A0632438161026270BD0000E5
:10240000002C01400034014000040040000800405E
:10241000000C004030B50B461446026A056A25F0F0
:1024200010050562816921F4704141EA043122F00E
:10243000A00242EA03128161026230BD70B50C460F
:102440001546026A066A26F010060662816921F4C2
:10245000407141EA052121F470414FF4704606EACB
:102460000336314322F0A002A02606EA04163243C6
:102470008161026270BD70B50C461546026A066A3B
:1024800026F480760662C16921F00301294321F018
:10249000F001F02606EA0316314322F400724FF4ED
:1024A000007606EA04263243C161026270BD70B54F
:1024B0000C461546026A066A26F480560662C16911
:1024C00021F4407141EA052121F470414FF4704636
:1024D00006EA0336314322F400524FF4005606EA6E
:1024E00004363243C161026270BD00BF00BF0268A2
:1024F0000C3252E8002F22F4907102680C3242E84C
:102500000013002BF3D100BF00BF00BF02681432DC
:1025100052E8002F22F001010268143242E8001351
:10252000002BF3D100BF016B01290ED100BF00BF0A
:1025300002680C3252E8002F22F0100102680C32BF
:1025400042E80013002BF3D100BF202180F8421095
:10255000002101637047000070B5044621680969D5
:1025600021F44051E2681143226811612269A16897
:102570001143626941EA02052168C96841F20C62AF
:10258000914329432268D1602168496921F440714F
:10259000A2691143226851612D4A2168914202D1FA
:1025A000FEF748FC01E0FEF735FC00EBC00101EB53
:1025B000001162689200B1FBF2F100EBC00202EB85
:1025C000001263689B00B2FBF3F26423B2FBF3F2E8
:1025D00002EBC20303EB0212A1EB8201322202EBF7
:1025E00001116422B1FBF2F101F0F00100EBC00235
:1025F00002EB001263689B00B2FBF3F26423B2FBB0
:10260000F3F201EB021200EBC00101EB0011636871
:102610009B00B1FBF3F100EBC00303EB0013666812
:10262000B600B3FBF6F36426B3FBF6F303EBC30685
:1026300006EB0313A1EB8301322303EB01116423A7
:10264000B1FBF3F101F00F0111442268916070BDFC
:10265000003801402DE9F84304460D4617469846D8
:10266000089E31E0701C70B3FEF740FAA0EB080042
:10267000B04200D816B90320BDE8F8832068C068CE
:1026800000F00400F8B1802D1ED0402D1CD0206831
:102690000068C0F3C000B0B100BF00200090206807
:1026A0000068009020684068009000BF00BF20468E
:1026B000FFF71BFF0820606400BF002084F8400083
:1026C00000BF0120D8E7FFE7206800682840A84243
:1026D00001D1012000E00020B842C3D00020CBE7A8
:1026E00000BFFEE70FB4054B10B503A9044A0298DA
:1026F00000F0F6F810BC5DF814FB0000E92F0008AC
:102700001000002002480068C0F30220704700005B
:102710000CED00E010B5002804DB0A07130E054A93
:10272000135406E00A07140E034A00F00F031B1FA0
:10273000D45410BD00E400E018ED00E002E008C849
:10274000121F08C1002AFAD170477047002001E02B
:1027500001C1121F002AFBD1704700002DE9FF5F65
:1027600082B00021DDE90430020DDDF840B0034302
:1027700018D044F61050A2F2FF32424315141198BB
:1027800001281FD0A5EB0B00401C5FEA000A4FF0A8
:1027900000064E4FDFF83891B046504615D5CAF1C5
:1027A000000413E0119801244AA3012801D16FEA23
:1027B0000B010298119AC0E90031C0E9024206B04B
:1027C000BDE8F09FCBF10000DFE704460021404A5E
:1027D000491842EB0450CDE9001012E0E00707D0A1
:1027E00032463B4640464946FDF7E2FC8046894674
:1027F00032463B4610461946FDF7DAFC06460F46C0
:102800006410002CEAD1DDE90401DDE90023BAF10E
:10281000000F06DAFDF7CCFC42464B46FDF7C8FC3C
:1028200005E0FDF737FD42464B46FDF733FD044614
:102830000E460022284BFDF70DFF03D84FF0FF3066
:10284000014607E00022254B20463146FDF742FEB7
:10285000FDF7E7FE102409E0002C0ADB0A22002322
:10286000FDF7AAFD039B30321A55641E50EA01029F
:10287000F2D1641C039AC4F111031444119A012A81
:1028800003D0012208430DD10AE0084304D0002000
:102890004FF0110B119072E7A3EB0B056D1E0DE0CD
:1028A0005B4504DD4FF0000205F1010504E003DAA9
:1028B0004FF00002A5F10105002AECD00298119911
:1028C000C0E90231C0E9004579E70000000014408A
:1028D0000000F03F300000000000F0430000E03F47
:1028E0002DE9FF4F95B09A46884606460025EEE151
:1028F000252877D100242746F94A0121039400E0D6
:10290000044316F8013F203B01FA03F01042F7D1CF
:1029100030782A2811D06FF02F033078A0F13002E0
:10292000092A16D8039A44F0020402EB820203EB50
:1029300042021044761C0390EFE758F8042B0392F0
:10294000002A03DA504244F40054039044F0020495
:10295000761C30782E2816D116F8010F44F00404A6
:102960002A280DD06FF02F023078A0F13003092B08
:1029700009D807EB870302EB4303C718761CF3E77C
:1029800058F8047B761C30786C280FD006DC4C2875
:1029900017D068280DD06A2814D104E0742810D00C
:1029A0007A280FD10DE044F400140AE044F48014B6
:1029B00001E044F440147278824202D104F580149C
:1029C000761C761C307866280BD013DC582877D01C
:1029D00009DC002875D04528F6D04628F4D04728D1
:1029E0001AD193E118E0632835D0642879D065289E
:1029F00012D18BE1702873D008DC6728F1D06928E8
:102A00006FD06E280DD06F2806D1ACE073282CD083
:102A1000752874D0782853D05246179990476D1C6A
:102A200054E1C4F30250022809D003280DD0D8F88D
:102A3000001004280DD00D6008F1040846E1D8F814
:102A40000010EA17C1E90052F6E7D8F800100D802F
:102A5000F2E70D70F0E718F8041B8DF80010002065
:102A60008DF80100EB46012003E058F804BB4FF05D
:102A7000FF3061074FF0000102D40DE009F10101C0
:102A80008946B9420FDA8145F8DB1BF809100029A5
:102A9000F4D108E009F1010189468142FADB1BF813
:102AA00009100029F6D103985346A0EB09072146E7
:102AB0003846179A00F080FA284400EB090507E031
:102AC00044E008E10DE01BF8010B524617999047CE
:102AD000B9F10109F7D2534621463846179AF2E078
:102AE00039E00A21C4F302524FF0000B0091022A90
:102AF00006D058F8040BC117032A09D00AE023E0D6
:102B000008F1070020F00702F2E80201904605E014
:102B100000B2C117042A01D140B2C117002906DA58
:102B20000A460021404261EB02012D2202E022050B
:102B300004D52B228DF80420012203E0E20701D006
:102B40002022F7E7914657E00A2100E010214FF0DC
:102B5000000B00910BE010214FF0000B44F0040437
:102B60000827009103E008204FF0000B0090C4F309
:102B70000252022A05D058F8040B0021032A08D07B
:102B800008E008F1070020F00702F2E80201904691
:102B900003E080B2042A00D1C0B24FF0000922073E
:102BA0002AD53278702A07D0DDF800C08CF0100CDE
:102BB0005CEA0B0C05D00EE040228DF804200122C7
:102BC00008E050EA010306D030238DF804308DF878
:102BD000052002229146009B83F0080353EA0B0371
:102BE0000AD150EA010201D1620705D530228DF8E1
:102BF00004204FF001097F1E3278582A04D039A2F0
:102C00000C920CAA02920BE03BA2F9E75B46009AF9
:102C1000FDF7D2FB0C9B9B5C029A521E0292137032
:102C200050EA0102F2D1029804A9081A00F1200B1F
:102C3000600702D524F4803400E001275F4502DDFF
:102C4000A7EB0B0000E0002000EB0B0100900398C5
:102C50004944401A0390E00306D453462146179A8C
:102C6000039800F0A9F90544002706E001A85246A0
:102C7000C05D179990476D1C7F1C4F45F6DBE00344
:102C80000CD553462146179A039800F095F9054450
:102C900004E030205246179990476D1C0099481E59
:102CA00000900029F5DC08E002980299524600786D
:102CB000491C0291179990476D1CBBF10001ABF1C3
:102CC000010BF1DC5BE100F065F90544761C30781E
:102CD00000287FF40DAE19B02846BDE8F08F000043
:102CE00009280100303132333435363738396162E2
:102CF00063646566000000003031323334353637A6
:102D0000383941424344454600000000600700D482
:102D1000062708F1070020F00700F0E802238046AC
:102D200003F0004C5FEA0C0001D097A009E02005F9
:102D300001D596A005E0E00701D095A001E0AFF233
:102D40004C001390307823F0004365280CD006DC4B
:102D5000452809D046281DD047287FD13BE066286A
:102D600018D067287AD136E00021112F01DB11201D
:102D700000E0781CCDE9000104A90CA8FFF7EEFCE7
:102D8000DDE90D010C9A4FF0000B07F101091092DB
:102D900000914EE04FF000400097CDE9011004A9EA
:102DA0000CA8FFF7DBFCDDE90D020C9B0F994FF03F
:102DB000000B91461093009211B9791C00EB0109A8
:102DC000B7EB090003D4C0F1FF3B07F10109A9EB00
:102DD0000700019042E0012F00DA01270021112FA6
:102DE00001DD112000E03846CDE9000104A90CA85E
:102DF000FFF7B4FCDDE90D010C9A00914FF0000BD8
:102E0000B946109221070FD4009A4A4503DA914639
:102E100001E0A9F10109B9F1010F05DD109AA9F14D
:102E20000101515C3029F4D0B84202DA10F1040FEC
:102E300003DA0121CDE9011010E0002803DC83440E
:102E4000A9EB000102E0411C494500DD8946A0EBE9
:102E50000B00401C01904FF000400290200705D469
:102E60000198484502DB4FF0FF30019000208DF8BB
:102E70004B0002980DF14B07B0F1004F25D0022016
:102E80000C902B200D90029800280CDA4042029002
:102E90002D200D9007E00A210298FDF777FA3031D6
:102EA000029007F8011D0C99481E0C900029F2DCD5
:102EB00002980028EFD1791E0D980870307800F044
:102EC000200040F0450007F8020D11A8C01BC01DEE
:102ED00002901398007800B1012000EB09010198DD
:102EE00001EBE071029801440398401A401E0390E0
:102EF000E00306D453462146179A039800F05CF885
:102F000005441398007818B15246179990476D1CE4
:102F1000E00323D553462146179A039800F04CF856
:102F200005441BE0BBF1000F07DB0098584504DDAA
:102F30001098179910F80B0001E0179930205246AD
:102F4000904701980BF1010B401E05F1010501901E
:102F500004D12E205246179990476D1CB9F10001FB
:102F6000A9F10109DEDC05E017F8010B52461799BB
:102F700090476D1C0299481E02900029F4DC5346CC
:102F80002146179A03989EE62D0000002B000000B2
:102F9000200000002DE9F041044600251E4617469A
:102FA000880404D405E039462020B0476D1C641E17
:102FB000F9D52846BDE8F0812DE9F0410446002509
:102FC0001E469046C80301D5302700E0202788041C
:102FD00004D505E041463846B0476D1C641EF9D55E
:102FE0002846BDE8F081000013B50C464FF47A7313
:102FF000012269460248FEF74DFE00981CBD000004
:10300000A40000201FB5FDF783FDFEF7CCFFFEF7FF
:10301000A3FEFEF7CDFEFEF739FFFEF789FF042180
:103020001248FEF707FD00211148FEF791FB04212D
:103030000F48FEF78DFB18E0FDF75AFB80468946E6
:10304000FDF788FB06460F46FDF764FB04460D4678
:1030500042464B4607A0CDE90067CDE90245FFF7A0
:1030600041FB4FF47A70FDF78DFBE5E75C00002033
:1030700014000020743A252E34662C663A252E342E
:10308000662C647574794379636C653A252E3466D1
:103090000A00000002030405060708090A0B0C0DCC
:1030A0000E0F1010010200000000000000000102DD
:1030B00003040607080900000000010203040000E1
:1030C000E030000800000020140000003C27000849
:1030D000F430000814000020DC0400004C27000835
:1030E00000000000100000000100000000127A0043
:0430F00000000000DC
:0400000508000131BD
:00000001FF
