:020000040800F2
:10000000580400204901000869150008411400083F
:1000100065150008B50100082B1900080000000054
:10002000000000000000000000000000991500081A
:10003000B9010008000000006D1500089B150008BC
:100040006301000863010008630100086301000800
:1000500063010008630100086301000863010008F0
:1000600063010008630100086301000863010008E0
:1000700063010008630100086301000863010008D0
:1000800063010008630100086301000863010008C0
:1000900063010008630100086301000863010008B0
:1000A000630100080D1600086301000863010008E1
:1000B0006301000863010008630100086301000890
:1000C0006301000863010008630100086301000880
:1000D0006301000863010008630100086301000870
:1000E0006301000863010008630100086301000860
:1000F0006301000863010008630100086301000850
:10010000630100086301000863010008630100083F
:10011000630100086301000863010008630100082F
:10012000630100086301000863010008630100081F
:10013000DFF810D000F02CF80048004789190008BB
:10014000AFF3008058040020064880470648004767
:10015000FEE7FEE7FEE7FEE7FEE7FEE7FEE7FEE777
:10016000FEE7FEE70916000831010008D2B201E0FF
:1001700000F8012B491EFBD270470022F6E710B5AC
:1001800013460A4604461946FFF7F0FF204610BD05
:10019000064C074D06E0E06840F0010394E80700D4
:1001A00098471034AC42F6D3FFF7C6FFE4190008B5
:1001B000041A000800BFFEE7704772B600BFFEE7F2
:1001C0002DE9F847024600239C467BE14FF00108E9
:1001D00008FA03F4D1F8008008EA0400A0427DD1B7
:1001E000DFF8F4A2D1F80480A8EB0A09D0453AD090
:1001F00014DCB8F1030F50D009DCB8F1000F31D096
:10020000B8F1010F1CD0B8F1020F49D120E0B8F1CC
:10021000110F18D0B8F1120F42D11EE0B9F5881FA6
:1002200025D006DCB9F5803F20D0B9F5801F37D145
:100230001AE0B9F5001F18D0B9F5041F30D117E046
:10024000D1F80CC02DE0D1F80C8008F1040C28E0A6
:10025000D1F80C8008F1080C23E0D1F80C8008F1EB
:100260000C0C1EE000BF00BF00BF00BF00BF00BFFE
:10027000D1F80880B8F1000F02D14FF0040C0BE068
:10028000D1F80880B8F1010F03D14FF0080C1461C8
:1002900002E04FF0080C546103E04FF0000C00E066
:1002A00000BF00BFFF2801D8904601E002F104081A
:1002B0004646FF2802D84FEA830803E0A3F1080866
:1002C0004FEA88084746D6F800804FF00F0909FA30
:1002D00007F928EA09080CFA07F900E07AE048EA89
:1002E0000908C6F80080D1F8048008F08058B8F1F9
:1002F000805F6FD100BFDFF8E481D8F8188048F044
:100300000108DFF8D891C9F81880C846D8F81880D5
:1003100008F00108CDF8008000BF00BF4FEAB938EF
:100320004FEA930958F829504FEA83784FEA187931
:100330004FF00F0808FA09F825EA0805DFF8A08150
:10034000424502D14FF0000824E0DFF89881424591
:1003500002D14FF001081DE0DFF88C81424502D147
:100360004FF0020816E0DFF88481424502D14FF0D9
:1003700003080FE0DFF87881424502D14FF004080E
:1003800008E0DFF87081424502D14FF0050801E036
:100390004FF006084FEA83794FEA197908FA09F80D
:1003A00048EA0505DFF850814FEA930948F82950DB
:1003B000D1F8048008F48018B8F5801F0BD1DFF85D
:1003C0003C81D8F8008048EA0008DFF83091C9F88D
:1003D00000800AE075E0DFF82481D8F8008028EA80
:1003E0000008DFF81891C9F80080D1F8048008F4FB
:1003F0000018B8F5001F0ED1DFF8008108F10408DD
:10040000D8F8008048EA0008DFF8F09009F1040904
:10041000C9F800800DE0DFF8E48008F10408D8F89E
:10042000008028EA0008DFF8D49009F10409C9F82F
:100430000080D1F8048008F40038B8F5003F0ED1F0
:10044000DFF8B880A8F10408D8F8008048EA00086E
:10045000DFF8A890A9F10409C9F800800DE0DFF8E1
:100460009C80A8F10408D8F8008028EA0008DFF88A
:100470008C90A9F10409C9F80080D1F8048008F42F
:100480008038B8F5803F0ED1DFF87080A8F10808F9
:10049000D8F8008048EA0008DFF86090A9F1080960
:1004A000C9F800800DE0DFF85480A8F10808D8F8FA
:1004B000008028EA0008DFF84490A9F10809C9F88B
:1004C00000805B1CD1F8008028FA03F8B8F1000F17
:1004D0007FF47CAEBDE8F8870000111000100240E8
:1004E00000080140000C01400010014000140140D0
:1004F00000180140001C01400800014008040140B0
:1005000001480068704700000000002003480068B0
:100510000349097808440149086070470000002039
:100520000800002010B50848006840F01000064997
:100530000860032000F0A8F80F2000F007F800F092
:100540002BF8002010BD00000020024070B50446CA
:100550000E4800784FF47A71B1FBF0F00C4909684D
:10056000B1FBF0F5284600F0D3FB08B1012070BDC7
:10057000102C07D200222146501E00F047F80548F3
:10058000046001E00120F2E70020F0E7080000200D
:100590000C0000200400002008B500BF114880694D
:1005A00040F001000F4988610846806900F00100B1
:1005B000009000BF00BF00BF0846C06940F08050F7
:1005C000C8610846C06900F08050009000BF00BFBD
:1005D00000BF0549486820F0E06040F000704860C6
:1005E00000BF08BD0010024000000140014608465F
:1005F000002809DB00F01F0301229A4043099B00F9
:1006000003F1E023C3F8002100BF70472DE9F05F3C
:1006100080460D461646002701F08AF907463946FE
:100620002A46334601F00700C0F1070ABAF1040F69
:1006300002D94FF0040A01E0C0F1070AD14600F1E7
:10064000040ABAF1070F02D24FF0000A01E0A0F14C
:10065000030AD4464FF0010A0AFA09FAAAF1010A7C
:100660000AEA020A0AFA0CFA4FF0010B0BFA0CFB29
:10067000ABF1010B0BEA030B4AEA0B04214640469F
:1006800001F05EF9BDE8F09F00BF00F00702064BE5
:1006900019684FF6FF031940044B0B4343EA02214C
:1006A000014B196000BF70470CED00E00000FA0537
:1006B00070B504460D460CB9012070BD5A4800685B
:1006C00000F00700A8420ED25748006820F007004B
:1006D0002843554908600846006800F00700A84212
:1006E00001D00120E9E7207800F0020002281DD1A6
:1006F000207800F00400042805D14C48406840F4FC
:10070000E0604A494860207800F00800082805D1D8
:100710004648406840F46050444948604348406857
:1007200020F0F000A168084340494860207800F0BC
:10073000010078B36068012806D13C48006800F4E5
:10074000003090B90120B8E76068022806D1374828
:10075000006800F0007040B90120AEE7334800683F
:1007600000F0020008B90120A7E73048406820F0F7
:100770000300616808432D494860FFF7C1FE064643
:1007800009E0FFF7BDFE801B41F28831884202D9A3
:10079000032092E707E02548406800F00C006168FC
:1007A000B0EB810FEDD12048006800F00700A842AF
:1007B0000ED91D48006820F0070028431A49086038
:1007C0000846006800F00700A84201D0012074E745
:1007D000207800F00400042807D11448406820F471
:1007E000E060E168084311494860207800F00800A3
:1007F000082808D10D48406820F46050216940EA7B
:10080000C1000A49486000F019F808494968C1F375
:100810000311074A515CC840064908600648006851
:10082000FFF794FE002048E700200240001002403D
:10083000CA1900080C0000200400002070B5002137
:100840000022002400230020134D696801F00C05EC
:10085000F5B1042D02D0082D19D101E00F4819E09F
:100860000F4DC1F38346AB5D01F4803555B10A4DA0
:100870006D68C5F340450B4E725D084D5D43B5FB99
:10088000F2F402E0084D03FB05F4204602E000BF4D
:10089000024800BF00BF70BD0010024000127A0085
:1008A000B8190008C819000800093D00F8B5044649
:1008B0000CB90120F8BD207800F00100002878D0A4
:1008C000F848406800F00C0004280CD0F548406857
:1008D00000F00C00082811D1F248406800F4803084
:1008E000B0F5803F0AD1EF48006800F400300028DE
:1008F0005FD0606800285CD10120DBE700BF606842
:10090000B0F5803F06D1E748006840F48030E54903
:10091000086028E0606858B9E248006820F4803038
:10092000E04908600846006820F4802008601AE06A
:100930006068B0F5A02F0BD1DA48006840F4802041
:10094000D84908600846006840F4803008600AE032
:10095000D448006820F48030D24908600846006816
:1009600020F48020086000BF606888B1FFF7C8FDF0
:10097000054606E0FFF7C4FD401B642801D90320AB
:1009800098E7C848006800F400300028F2D010E072
:10099000FFF7B6FD054606E0FFF7B2FD401B6428F1
:1009A00001D9032086E7BF48006800F40030002822
:1009B000F2D1207800F00200022857D1B9484068EF
:1009C00000F00C0050B1B748406800F00C00082857
:1009D00018D1B448406800F4803098B9B148006834
:1009E00000F0020020B12069012801D0012061E758
:1009F000AC48006820F0F800616940EAC100A949EC
:100A0000086033E02069E8B10120A7490860FFF7DA
:100A100077FD054606E0FFF773FD401B022801D96C
:100A2000032047E79F48006800F002000028F2D04A
:100A30009C48006820F0F800616940EAC1009949CB
:100A4000086013E0002098490860FFF759FD05464B
:100A500006E0FFF755FD401B022801D9032029E7D6
:100A60009048006800F002000028F2D1207800F0E1
:100A7000080008282DD1A069B8B101208B49086071
:100A8000FFF73EFD054606E0FFF73AFD401B022852
:100A900001D903200EE78348406A00F002000028D5
:100AA000F2D0012000F064FD13E000207F490860CF
:100AB000FFF726FD054606E0FFF722FD401B022852
:100AC00001D90320F6E67748406A00F002000028CA
:100AD000F2D1207800F00400042873D10027714877
:100AE000C06900F0805070B900BF6E48C06940F026
:100AF00080506C49C8610846C06900F08050009081
:100B000000BF00BF01276A48006800F48070B0B9D8
:100B10006748006840F4807065490860FFF7F0FCA2
:100B2000054606E0FFF7ECFC401B642801D90320D2
:100B3000C0E65F48006800F480700028F2D000BF73
:100B4000E068012806D15748006A40F00100554985
:100B5000086227E0E06858B95248006A20F00100B6
:100B6000504908620846006A20F00400086219E053
:100B7000E06805280BD14B48006A40F00400494961
:100B800008620846006A40F0010008620AE0454831
:100B9000006A20F00100434908620846006A20F01C
:100BA0000400086200BFE068A0B1FFF7A9FC054699
:100BB00009E0FFF7A5FC401B41F28831884202D9C9
:100BC000032077E622E03748006A00F002000028A0
:100BD000EFD012E0FFF794FC054608E0FFF790FC29
:100BE000401B41F28831884201D9032062E62D483A
:100BF000006A00F002000028F0D1012F05D1294839
:100C0000C06920F080502749C86100BFE069C8B3BF
:100C10002448406800F00C00082860D0E0690228F1
:100C200048D1002020490866FFF76AFC054606E027
:100C3000FFF766FC401B022801D903203AE6194859
:100C4000006800F000700028F2D1206AB0F5803F03
:100C500007D11448406820F40030A16808431149C6
:100C60004860D4E9080108430E49496821F4741129
:100C700008430C49486001200B490866FFF740FC17
:100C8000054607E03DE0FFF73BFC401B022801D989
:100C900003200FE60348006800F000700028F2D03F
:100CA0002FE0000000100240000042428004424257
:100CB00000700040002014490866FFF721FC05463B
:100CC00006E0FFF71DFC401B022801D90320F1E5D7
:100CD0000E48006800F000700028F2D111E0E069D1
:100CE000012800D1E6E50948466806F48031206A0B
:100CF000814204D106F47011606A814201D0012062
:100D0000D8E50020D6E50000000042420010024075
:100D100070B504462546681EB0F1807F01D30120DE
:100D20000FE0681E4FF0E02148610F214FF0FF30C7
:100D300000F006FE00204FF0E021886107200861E6
:100D4000002070BD7047704710B50346002200BFF9
:100D500093F83C00012801D1022010BD012083F846
:100D60003C0000BF22F0FF00CC6840EA040222F4FD
:100D700040708C6840EA040222F480604C6840EACB
:100D8000040222F400600C6840EA040222F480505D
:100D90000C6940EA040222F400504C6940EA040263
:100DA00022F48040CC6940EA04021868426400BF23
:100DB000002083F83C0000BF00BFCEE730B50246FC
:100DC0000B4600BF92F83C00012801D1022030BD43
:100DD000012082F83C0000BF022082F83D0010682C
:100DE00044681068816824F070041868044310682F
:100DF0004460144D1068A84213D0134D1068A842E7
:100E00000FD01068B0F1804F0BD0104D1068A84281
:100E100007D00F4D1068A84203D00E4D1068A842AD
:100E200005D121F0800158680143106881600120DC
:100E300082F83D0000BF002082F83C0000BF00BFE8
:100E4000C5E70000002C01400034014000040040D0
:100E500000080040000C004010B504460CB9012009
:100E600010BD94F83D0028B9002084F83C002046CD
:100E700000F026F8022084F83D00211D206800F0D3
:100E8000D5FB012084F8460000BF84F83E00012114
:100E90003F200155402001554120015500BF00BFB2
:100EA000012084F84200432001554420015545208B
:100EB000015500BF012084F83D000020D0E700006C
:100EC00038B504460D492068884215D100BF0C484A
:100ED000806940F400600A4988610846806900F42E
:100EE0000060009000BF00BF002211461920FFF7EC
:100EF0008DFB1920FFF77AFB38BD0000002C014064
:100F0000001002402DE9F04104460D46002700BFC5
:100F100094F83C00012802D10220BDE8F0810120B4
:100F200084F83C0000BF022084F83D0020688668F9
:100F300026F0770626F47F462068866028685028C9
:100F400033D00CDC202850D004DC00284BD01028F3
:100F500051D149E0302849D040284CD139E06028AF
:100F60002DD0702807D0B0F5805F03D0B0F5005FBA
:100F700041D10DE041E0D5E902136A68206800F034
:100F8000BCFB2068866846F077062068866034E0FF
:100F9000D5E902136A68206800F0AFFB206880681A
:100FA00040F480402168886027E0EA68696820682A
:100FB00000F094FC5021206800F0AAFB1DE0EA68D4
:100FC0006968206800F09DFC6021206800F0A0FBAB
:100FD00013E0EA686968206800F080FC402120681E
:100FE00000F096FB09E000BF00BF00BF2968206841
:100FF00000F08EFB01E0012700BF00BF012084F854
:101000003D0000BF002084F83C0000BF384684E764
:10101000704770B504462068C5682068066906F008
:101020000200022819D105F00200022815D1401F44
:1010300021680861012020772068806900F00300A2
:1010400018B12046FFF7E4FF05E0204600F0C4F8A1
:10105000204600F078F90020207706F004000428EC
:1010600019D105F00400042815D1C0432168086196
:10107000022020772068806900F4407018B1204673
:10108000FFF7C6FF05E0204600F0A6F8204600F076
:101090005AF90020207706F00800082819D105F039
:1010A0000800082815D1C043216808610420207772
:1010B0002068C06900F0030018B12046FFF7A8FFC0
:1010C00005E0204600F088F8204600F03CF90020BA
:1010D000207706F01000102819D105F01000102814
:1010E00015D1C04321680861082020772068C069B5
:1010F00000F4407018B12046FFF78AFF05E0204653
:1011000000F06AF8204600F01EF90020207706F073
:10111000010048B105F0010030B16FF00100216815
:101120000861204600F08AF906F08000802809D185
:1011300005F08000802805D1C04321680861204661
:10114000FFF700FE06F04000402809D105F04000FE
:10115000402805D1C04321680861204600F06FF99E
:1011600006F02000202809D105F02000202805D114
:10117000C043216808612046FFF7E5FD70BD00000F
:1011800010B586B0044600200290039004900590AC
:101190000E492068884216D100BF0D48806940F092
:1011A00004000B4988610846806900F00400019042
:1011B00000BF00BF8815029002200390059002A98D
:1011C0000448FEF7FDFF06B010BD0000002C0140F2
:1011D000001002400008014070472DE9F04104462C
:1011E0000D461646002700BF94F83C00012802D1A6
:1011F0000220BDE8F081012084F83C0000BF36B138
:10120000042E1BD0082E31D00C2E5ED145E029468D
:10121000206800F087FA2068806940F008002168A3
:1012200088612068806920F0040021688861206856
:101230008069296908432168886148E02946206857
:1012400000F0A8FA2068806940F400602168886195
:101250002068806920F48060216888612068806946
:10126000296940EA01202168886130E02946206828
:1012700000F0CEFA2068C06940F008002168C8611B
:101280002068C06920F004002168C8612068C06936
:10129000296908432168C86119E02946206800F0DF
:1012A000F3FA2068C06940F400602168C8612068D2
:1012B000C06920F480602168C8612068C06929691C
:1012C00040EA01202168C86101E0012700BF00BF9A
:1012D00000BF002084F83C0000BF384689E710B505
:1012E00004460CB9012010BD94F83D0028B9002037
:1012F00084F83C00204600F025F8022084F83D00E8
:10130000211D206800F092F9012084F8460000BFFA
:1013100084F83E0001213F20015540200155412025
:10132000015500BF00BF012084F842004320015551
:10133000442001554520015500BF012084F83D009F
:101340000020D0E77047704770B504460D4615B9C8
:1013500094F83E000BE0042D02D13F20005D06E032
:10136000082D02D14020005D01E04120005D0128F0
:1013700001D0012070BD1DB9022084F83E000EE0AE
:10138000042D03D102213F20015508E0082D03D18F
:1013900002214020015502E0022141200155012295
:1013A0002946206800F098F91F492068884203D038
:1013B0001E492068884201D1012000E0002028B1A8
:1013C0002068406C40F40040216848641649206859
:1013D000884213D01549206888420FD02068B0F1A8
:1013E000804F0BD012492068884207D011492068ED
:1013F000884203D01049206888420CD12068806858
:1014000000F00706062E0CD02068006840F00100AE
:101410002168086005E02068006840F0010021684C
:1014200008600020A6E70000002C014000340140C5
:101430000004004000080040000C00407047704766
:1014400000BFFEE708B500BF0D48806940F01000FE
:101450000B4988610846806900F01000009000BFC9
:1014600000BF00BF0846806940F00400886108465C
:10147000806900F00400009000BF00BF08BD0000BC
:101480000010024000B595B000201190129013900A
:1014900014900F9010901C2108A8FEF76EFE2021DA
:1014A0006846FEF76AFE2D482D49086041F61F4048
:1014B000486000212A48816041F28731C1600021E3
:1014C00001610421416100218161FFF7C5FC08B180
:1014D000FEF773FE4FF48050119011A92048FFF7DA
:1014E00011FD08B1FEF769FE1D48FFF7F8FE08B1CF
:1014F000FEF763FE00200F9010900FA91848FFF729
:101500005DFC08B1FEF759FE6020089040F6C4105B
:10151000099000200A900B900C900D900E900022E4
:1015200008A90F48FFF759FE08B1FEF746FE002054
:10153000009001900290039004904FF400500590A9
:101540000020079069460648FFF7FEFB08B1FEF74A
:1015500034FE0348FFF714FE15B000BD002C014017
:101560001000002000BFFEE700BFFEE7704700004C
:1015700008B508490968C9084FF47A72B1FBF2F15D
:101580004143009100BF00BF00994A1E009200290C
:10159000F9D108BD0C000020704710B5FEF7B6FF6A
:1015A00010BD00B58FB0282105A8FEF7E6FD142177
:1015B0006846FEF7E2FD0120059000040690002039
:1015C00007900120099002200C90C1030D914FF467
:1015D000E0110E9105A8FFF769F908B1FEF7EDFDDE
:1015E0000F20009002200190002002904FF48060B4
:1015F00003900020049002216846FFF759F808B1D3
:10160000FEF7DBFD0FB000BD7047000010B50548C8
:10161000FFF7FFFC0448006820F001000249086061
:1016200010BD000010000020002C014010B5026821
:10163000244B98420ED0244B98420BD0B0F1804FEF
:1016400008D0224B984205D0214B984202D0214B22
:10165000984203D122F070024B681A43194B98420A
:101660000ED0194B98420BD0B0F1804F08D0174BD9
:10167000984205D0164B984202D0164B984203D19F
:1016800022F44072CB681A4322F080034C6943EA8B
:10169000040202608B68C3620B688362094B984244
:1016A00002D0094B984201D10B69036301234361C6
:1016B000036903F001031BB1036923F00103036114
:1016C00010BD0000002C0140003401400004004027
:1016D00000080040000C004030B501F01F05012457
:1016E00004FA05F3046A9C430462046A01F01F05CE
:1016F00002FA05F52C43046230BD30B50C46816812
:1017000021F47F4142EA032525432943816030BD0E
:101710000A46816821F0700142F007031943816095
:101720007047000030B5026A056A25F001050562C0
:101730004368846924F0700424F003040D682C438A
:1017400022F002028D682A43104DA84200D103E026
:101750000F4DA84206D100BF22F00802CD682A43EF
:1017600022F00402094DA84202D0094DA84207D137
:1017700023F4807323F400734D692B438D692B434D
:10178000436084614D684563026230BD002C0140B6
:101790000034014030B5026A056A25F01005056283
:1017A0004368846924F4E04424F440740D6844EAF6
:1017B000052422F020028D6842EA0512124DA8424B
:1017C00000D103E0114DA84207D100BF22F08002F2
:1017D000CD6842EA051222F040020B4DA84202D029
:1017E0000A4DA84209D123F4806323F400634D69B4
:1017F00043EA85038D6943EA8503436084614D684C
:101800008563026230BD0000002C014000340140BD
:1018100030B5026A056A25F4807505624368C469BB
:1018200024F0700424F003040D682C4322F40072A9
:101830008D6842EA0522124DA84200D103E0114D05
:10184000A84207D100BF22F40062CD6842EA052217
:1018500022F480620A4DA84202D00A4DA84209D162
:1018600023F4805323F400534D6943EA05138D6933
:1018700043EA05134360C4614D68C563026230BD2D
:10188000002C01400034014030B5036A056A25F49C
:10189000805505624468C26922F4E04222F4407235
:1018A0000D6842EA052223F400538D6843EA0533AC
:1018B000084DA84202D0084DA84204D124F4804427
:1018C0004D6944EA85144460C2614D680564036251
:1018D00030BD0000002C01400034014030B50B4603
:1018E0001446026A056A25F001050562816921F046
:1018F000F00141EA041122F00A021A4381610262F6
:1019000030BD30B50B461446026A056A25F0100555
:101910000562816921F4704141EA043122F0A0029C
:1019200042EA03128161026230BD00BFFEE700009F
:1019300002480068C0F30220704700000CED00E090
:1019400010B5002804DB0A07130E054A135406E0FD
:101950000A07140E034A00F00F031B1FD45410BDD6
:1019600000E400E018ED00E002E008C8121F08C122
:10197000002AFAD170477047002001E001C1121F10
:10198000002AFBD170470000FEF7CCFDFFF709FEEF
:10199000FFF758FDFFF776FD06480068C06840F085
:1019A000010004490968C86000210248FFF7CCFC27
:1019B00000BFFEE710000020020304050607080927
:1019C0000A0B0C0D0E0F10100102000000000000A9
:1019D00000000102030406070809000000000102DC
:1019E00003040000041A000800000020100000009A
:1019F00068190008141A00081000002048040000AC
:101A0000781900080000000010000000010000002C
:041A100000127A0046
:0400000508000131BD
:00000001FF
